:020000040800F2
:1000000030150020650100081B0D000835090008A7
:10001000190D000811020008F1120008000000008C
:10002000000000000000000000000000FD0F0008BC
:1000300013020008000000001D0D0008BD1100089B
:100040007F0100087F0100087F0100087F01000890
:100050007F0100087F0100087F0100087F01000880
:100060007F0100087F0100087F0100087F01000870
:100070007F0100087F0100087F0100087F01000860
:100080007F0100087F0100087F0100087F01000850
:100090007F0100087F0100087F0100087F01000840
:1000A0007F0100087F0100087F0100087F01000830
:1000B0007F0100087F0100087F0100087F01000820
:1000C0007F0100087F0100087F0100087F01000810
:1000D0007F0100087F0100087F0100087F01000800
:1000E0007F0100087F0100087F0100087F010008F0
:1000F0007F0100087F0100087F0100087F010008E0
:100100007F0100087F0100087F0100087F010008CF
:100110007F0100087F0100087F0100087F010008BF
:100120007F0100087F0100087F0100087F010008AF
:10013000DFF80CD000F05AF800480047CF14000850
:1001400030150020EFF30980704780F3098870476D
:10015000EFF30880704780F30888704740BA704713
:10016000C0BA70470648804706480047FEE7FEE7EA
:10017000FEE7FEE7FEE7FEE7FEE7FEE7FEE7FEE757
:10018000C11100083101000840EA01039B0703D0B8
:1001900009E008C9121F08C0042AFAD203E011F8C6
:1001A000013B00F8013B521EF9D27047D2B201E088
:1001B00000F8012B491EFBD270470022F6E710B56C
:1001C00013460A4604461946FFF7F0FF204610BDC5
:1001D00010B5002200E0521C835C8C5CA34201D16C
:1001E000002BF8D1D8B2E1B2401A10BD064C074D31
:1001F00006E0E06840F0010394E8070098471034F7
:10020000AC42F6D3FFF798FF2C1500084C150008F8
:10021000FEE770472DE9F34182B0002488460425AB
:100220000094029800F0BEF9064600F07BFA134FE6
:1002300013E000BF07EBC42000F032F90546B8F127
:10024000010F09D1611C684600F044FD684600F0CA
:10025000F7FE0BA000F0F4FE641CB44201D2042DA2
:10026000E8D000F093F9B44201D1042D03D000206E
:1002700004B0BDE8F0810120FAE70000003000087A
:10028000400000002DE9F0474FF001094FF002084F
:10029000042700F075F91E4D06466868B04335D056
:1002A00000F068F9044668683043686000F0BAF806
:1002B00006466868411C03D0C04300F05DF806465E
:1002C000E04340070ED0E00700D18146A00701D4EB
:1002D0004FF00008600700D400273A4641464846E0
:1002E00000F02EFA042E04D00AA0BDE8F04700F07A
:1002F000A7BE10A000F0A4FE15480168154A01F43D
:10030000E06111430160BFF3408FFEE712A0ECE70C
:10031000000000204572726F723A20756E70726F25
:1003200074656374696F6E206661696C65642E0D17
:100330000A00000057726974652050726F7465631B
:1003400074696F6E20436C6F73652E0D0A00000098
:100350000CED00E00400FA05466C617368206E6FD6
:10036000742077726974652070726F746563746548
:10037000642E0D0A000000002DE9F043C043C7B20F
:10038000C0F30726C0F30745040E4FF40059484652
:1003900000F02AFA04283BD1DFF87C801D4AC8F817
:1003A00008201E4AC8F80820D8F8102042F0100291
:1003B000C8F81020FF2F06D019480780484600F0E3
:1003C00013FA04281BD1FF2E07D01548801C068085
:1003D000484600F009FA042811D1FF2D07D0104833
:1003E000001D0580484600F0FFF9042807D1FF2CC6
:1003F00007D00B48801D0480484600F0F5F9052819
:1004000006D0D8F8102041F6EF731A40C8F8102033
:10041000BDE8F0832301674500200240AB89EFCDA2
:1004200008F8FF1F70B5A52500F09AF800B1002567
:100430004FF43026304600F0D7F9042827D1154C68
:100440001348A0601448A060206940F0200020619B
:10045000206940F040002061304600F0C5F941F6C7
:10046000EF7604280ED1206941F6DF710840206143
:10047000206940F010002061084805804FF40050CA
:1004800000F0B2F9052802D021693140216170BD28
:100490002301674500200240AB89EFCD00F8FF1F24
:1004A000F0B505461848194C4FF43026854241F600
:1004B000FD77304613D200F073F904280ED120697D
:1004C00040F0020020616561206940F04000206139
:1004D000304600F065F9216939402161F0BD00F036
:1004E00071F90428FAD1206D40F00200206565659D
:1004F000206D40F040002065304600F063F9216D2A
:1005000039402165F0BD0000FFFF070800200240D0
:1005100008490420CA68D20701D001207047CA6880
:10052000520701D502207047C968C906FBD50320D0
:10053000704700000020024008490420CA6CD2071E
:1005400001D001207047CA6C520701D502207047C4
:10055000C96CC906FBD5032070470000002002408B
:1005600003490020C969890700D5012070470000B0
:10057000002002400148C069800870470020024006
:100580000148006A704700000020024004480169E9
:1005900041F080010161016D41F08001016570470A
:1005A0000020024001B50098410503D0012101EB74
:1005B000D02008BDC00A08BD2DE9F04105464FF422
:1005C00000580E46404600F00FF91149114C41F613
:1005D000FE778D420ED204280AD1206940F0010036
:1005E00020612E80404600F0DBF82169394021610E
:1005F000BDE8F0810428FBD1206D40F001002065AA
:100600002E80404600F0DEF8216D39402165EFE78D
:10061000FFFF0708002002402DE9F84704460020AC
:100620003E4A41F6FE750090A61C0F0CA81CDFF890
:10063000F0901FFA81F894421ED2824600F0B0F882
:10064000042817D1D9F8101041F00101C9F8101091
:10065000A4F800805446504600F0C6F8042804D19F
:1006600000963780204600F0BFF8D9F810202A40C5
:10067000C9F81020BDE8F88728498246491C8C42F9
:1006800033D100F08DF80428484608D0016929408C
:100690000161504600F096F8042810D01FE0006970
:1006A00040F00101C9F81010A4F80080504600F095
:1006B00077F8D9F810002840C9F81000E9E7D9F810
:1006C00050004C4640F00100C9F8500000963780B9
:1006D000504600F077F8216D29402165CAE7D9F826
:1006E00050202A40C9F85020C4E700F06BF80428D5
:1006F000C0D1D9F8501041F00101C9F85010A4F848
:1007000000805446504600F05DF80428E7D100967A
:100710003780204600F056F8E1E70000FDFF0708AB
:1007200000200240044803494160044A4260416499
:10073000426470472301674500200240AB89EFCD3A
:100740002DE9F041134C0746114816460D46A060AE
:100750001148A0604FF40058404600F045F80428C6
:1007600013D1206940F01000206135430B493D430F
:1007700045F0F8000880404600F036F8052804D01F
:10078000216941F6EF7211402161BDE8F08100005E
:100790002301674500200240AB89EFCD02F8FF1F1F
:1007A00000B50346FFF7B4FE03E000BFFFF7B0FE5D
:1007B0005B1E012803D0002B00D1052000BD002BBB
:1007C000F4D1FAE700B50346FFF7B6FE03E000BF39
:1007D000FFF7B2FE5B1E012803D0002B00D10520DD
:1007E00000BD002BF4D1FAE700B50346FFF790FEF9
:1007F00003E000BFFFF78CFE5B1E012803D0002B37
:1008000000D1052000BD002BF4D1FAE7F0B5CA787D
:10081000002502F00F03D20601D58A7813430C7825
:100820004FF00F0E0122ECB1D0F800400F8802FA11
:1008300005F63740B74211D14FEA850C0EFA0CF796
:1008400024EA070703FA0CF43C43CF78282F02D0A0
:10085000482F02D002E0466100E006616D1C082DC1
:10086000E4D304600C88FF2C1ED944685FF00006B6
:1008700006F1080702FA07F50F882F40AF420FD1A3
:100880004FEA860C0EFA0CF7BC4303FA0CF73C4314
:10089000CF78282F00D14561CF78482F00D105614E
:1008A000761C082EE4D34460F0BD000070B5054608
:1008B0005FF0000400F032F80A2802D008280BD0BC
:1008C00004E0291911F8011C0D2912D0802C07D33E
:1008D0000CA000F0B5FBEBE7002CEBD0641EE9E7C1
:1008E000A0F120015E2901D90D28E3D12855641C0F
:1008F000E0E709A000F0A4FB0020291901F8010C91
:1009000070BD000020436D642073697A65206F76A6
:1009100065722E0D0A0000000D0A000008B50020C7
:100920008DF80000684600F06BFB0028FAD09DF8B7
:10093000000008BDFEE7000008B5002000904FF45D
:10094000FD71684600F0C6F909A000F079FB684621
:1009500000F076FB06A000F073FB01214FF47D2030
:10096000FFF758FC08B1002008BD4FF0FF3008BD6C
:1009700040000000014800F096BA0000002800087E
:1009800001B5FFF7CFFE01226946034800F08EFA59
:10099000FFF7FCFD08BD00000028000830B5A1B03D
:1009A00080216846FFF709FC3648374C012500686E
:1009B000A0F10060000B20603E2804D205FA00F090
:1009C000401EC04301E04FF000406060FFF7D8FDDB
:1009D0006168814301D0A56001E00020A0602BA0E8
:1009E00000F02EFB31A000F02BFB33A000F028FB21
:1009F00034A000F025FB36A000F022FB36A000F06A
:100A00001FFBA06810B137A000F01AFB38A000F05F
:100A100017FB6846FFF74AFF36A16846FFF7D8FB89
:100A2000E0B136A16846FFF7D3FBD0B135A16846E7
:100A3000FFF7CEFBC0B135A16846FFF7C9FBC8B1CF
:100A400034A16846FFF7C4FB80B134A16846FFF7C4
:100A5000BFFBA0B133A000F0F3FAC0E74EF6EE60A2
:100A600004E04DF6DD5001E04CF6CC40FFF788FF86
:100A700021B030BD4FF6FF70FFF782FFAFE7FFF701
:100A800001FCACE714000020000000200D0A204902
:100A90004150204D61696E204D656E7520285620AD
:100AA000302E312E30290D0A0000000020757064B0
:100AB0006174650D0A0000002075706C6F61640D33
:100AC0000A0000002065726173650D0A00000000D5
:100AD000206D656E750D0A002072756E6170700D67
:100AE0000A0000002064697377700D0A000000009E
:100AF0000D0A0000757064617465000075706C6F9C
:100B00006164000065726173650000006D656E755B
:100B10000000000072756E61707000006469737788
:100B20007000000020496E76616C696420434D447A
:100B300020210D0A0000000070B50D4D28680D49F8
:100B40000840B0F1005F05D00BA000F079FA4FF03B
:100B5000FF3070BD0EA000F073FA6868104C206181
:100B6000E0602868FFF7F7FAE0688047002070BD72
:100B7000003000080000FE2F2052756E20746F2098
:100B8000617070206572726F722E0D0A0000000095
:100B90002052756E20746F206170702E0D0A000057
:100BA000000000201FB54FF4E13000900020ADF8A8
:100BB0000400ADF80600ADF80800ADF80C000C20FC
:100BC000ADF80A00684600F0E7F91FBD3EB5002009
:100BD0000090019002901D4800F08CFB041E17DD70
:100BE0001BA000F02DFA1EA000F02AFA1E4800F00B
:100BF00027FA2146684600F06DF81CA000F020FAA4
:100C0000684600F01DFA1CA000F01AFA00203EBD54
:100C1000601C09D0A01C0DD0E41C11D019A000F05C
:100C20000FFA6FF003003EBD1BA000F009FA4FF071
:100C3000FF303EBD1DA000F003FA6FF001003EBD85
:100C40001FA000F0FDF96FF002003EBD3000002053
:100C500020557064617465204F766572210D0A001D
:100C6000204E616D653A2000300C00200D0A2053A3
:100C7000697A653A200000002042797465732E0D70
:100C80000A00000020526563656976652046696C3C
:100C900065642E0D0A00000020496D6167652054CF
:100CA0006F6F20426967210D0A00000020557064B3
:100CB000617465206661696C6564210D0A0000003D
:100CC0002041626F72746564206279207573657269
:100CD0002E0D0A00F0B500220E4B164614464FF0BA
:100CE0000A0C00BFB1FBF3F503FB151105F130074A
:100CF0008754521CB3FBFCF3851815F8015C302DAA
:100D000000D126B1761C641C0A2CEBD3F0BD002266
:100D1000F9E7000000CA9A3BFEE770477047000001
:100D2000044A0029916901D0014300E081439161A7
:100D3000704700000010024030B520494A6812F0A8
:100D40000C031F4A03D0042B01D0082B22D00260D1
:100D50004A680F231B4C03EA1212A35C0268DA40B4
:100D600042604B68072505EA1323E35C22FA03F38C
:100D700083604B6805EAD323E35C22FA03F2C26086
:100D80004968032303EA9131231F595CB2FBF1F157
:100D9000016130BD4A684B6802F470124FF00204E2
:100DA00013F4803F04EB924202D04B689B0301D5C1
:100DB000054B00E0024B5A43C9E700000010024017
:100DC00000127A002000002000093D0070B50C469A
:100DD000054604E0284600F013F9012804D0641EFB
:100DE000F8D24FF0FF3070BD002070BD2DE9F84FF4
:100DF000884600210646C8F800109246114668460B
:100E0000FFF7E4FF4FF0FF39D0BB9DF80000042846
:100E10003AD006DC01280DD002280DD003282FD1AE
:100E200006E018280ED0412818D0612828D115E0F6
:100E3000402403E0802401E04FF4806401253070F9
:100E4000671D15E051466846FFF7C0FFC0B99DF821
:100E50000000182814D1C8F8009015E00120BDE862
:100E6000F88F70195146FFF7B1FF48B96D1CADB24C
:100E7000BD42F6D3B178707881F0FF01884201D08D
:100E80004846ECE7C8F800400020E8E710B500232A
:100E900006E000BF30F8024B21F813405B1C9BB208
:100EA0009342F7D310BD0088704700002DE9F05F32
:100EB000A0F1006415468A468346B4F1804F52D2B1
:100EC000FFF730FCE70AC4F34906C6F58064A54283
:100ED00000D82C46DFF894904FF0006000EBC7205C
:100EE00080464FF480622149FFF7D0FF00204FF683
:100EF000FF7106E0331839F813208A4203D1401CF1
:100F000080B2A042F6D3A04225D24046FFF7C8FAED
:100F10000020494607E000BF3AF810208319401C22
:100F200021F8132080B2A042F6D3104940464FF476
:100F3000806200BF00F01CF8A54210D0281B0AEB0D
:100F4000440AA3447F1C002685B24FF48064A54266
:100F5000C2D82C46C0E7224651465846EAE7BDE8CB
:100F6000F05FFFF713BBBDE8F09F000030040020E6
:100F70002DE9F04116460F460546002408E000BF63
:100F800037F814102846FFF717FBAD1C641CA4B2F9
:100F9000B442F5D3BDE8F08138B5044601210520FF
:100FA000FFF7BEFE01218803FFF7BAFE18208DF877
:100FB00003004FF40070ADF8000003200D4D8DF8D4
:100FC000020069462846FFF721FC04208DF8030043
:100FD0000002ADF8000069462846FFF717FC2146DD
:100FE000054C204600F026F90121204600F010F9BA
:100FF00038BD000000080140003801407047000083
:1010000010B504462021054800F00CF9002804D052
:101010000248001D00882070012010BD00380140EA
:1010200010B5064C0146204600F05EF980212046AE
:1010300000F0F8F80028F9D010BD00000038014099
:1010400010B5044603E000BFFFF7EAFF641C2078F8
:101050000028F9D110BD00000CB5002126480191EF
:101060000091026842F4803202604FF4A06302688B
:1010700002F400320092019A521C0192009A12B9B5
:10108000019A9A42F3D10268920333D5012100916B
:101090001A490A6842F010020A600A6822F0030244
:1010A0000A600A6842F002020A60416841604168D1
:1010B0004160416841F480614160416821F47C11E4
:1010C0004160416841F4E8114160016841F080717C
:1010D000016001688901FCD5416821F0030141608C
:1010E000416841F0020141604168C1F38101022978
:1010F000FAD10CBD00910CBD00100240002002404E
:1011000070B5002204781346302C04D14478782C32
:101110000AD0582C08D06FF02F05845C74B36B2C68
:101120002ED04B2C2CD030E082780AB30224025D02
:101130005AB1A2F14105052D0AD9A2F16106052E89
:1011400006D91135092D07D913E001200B6011E0F4
:10115000A2F13006092E01D8303A04E0052D01D85D
:10116000373A00E0573A641C02EB03130B2CDED332
:1011700002E000200B2C00D3002070BD0B6002E0C9
:101180001AB1980207E0012015E06D2C01D04D2C1A
:1011900003D112B118050860F5E7A4F13006092E55
:1011A00008D803EB830305EB4303521C23440B2AAB
:1011B000B3D3E1E700200B2ADED270BD70470000F8
:1011C0000F4810B5016841F00101016041680D4A06
:1011D0001140416001680C4A11400160016821F42E
:1011E00080210160416821F4FE0141604FF41F013C
:1011F0008160FFF731FF05494FF00060086010BDC6
:10120000001002400000FFF8FFFFF6FE08ED00E0CE
:101210000029818902D041F4005101E021F40051FC
:10122000818170470246002012880A4200D00120C6
:101230007047000030B50446008A85B00D464CF674
:10124000FF710840E98801432182A1894EF6F3101D
:101250000140A8882A8910436A890A431043A08163
:10126000A08A4FF6FF410840A9890143A182684640
:10127000FFF762FD1B48844201D1039800E0029809
:10128000A1890904002900EBC00101EB00102968C5
:1012900002DA4FEA410101E04FEA8101B0FBF1F0CF
:1012A0006422B0FBF2F14FEA01114FEA11136FF023
:1012B00018056B4300EB8300A3891D044FF0320334
:1012C00006D503EBC000B0FBF2F000F0070005E02C
:1012D00003EB0010B0FBF2F000F00F000843208198
:1012E00005B030BD00380140C1F30801818070476E
:1012F000FEE700002DE9F04FADF2244D81460020BD
:10130000694CCDF80804DFF89CB14320C4F800B064
:10131000FFF786FE0020054606464FF0FF3A4FF4E1
:101320008017CDF8100400BF4FF000083A460DF2C8
:101330000C416846FFF75AFD88B101286DD0002E98
:1013400000DD6D1C052D69DD1820FFF769FE1820F2
:10135000FFF766FE00200DF2244DBDE8F08FDDF8AA
:101360000C240025524508D04AB19DF8011008F020
:10137000FF0081420BD0152091E00620E8E706200F
:10138000FFF74EFEDDF810040028CDD04AE0B8F19A
:10139000000F08D00DF103014846FEF7F5FE0026C8
:1013A000C4F804905FE09DF80300A8B300210DF19C
:1013B00003003E4B02E05A54401C491C02780AB11B
:1013C000FF29F8DD00265E543146401C0DF214431F
:1013D00002E05A54401C491C0278202A01D01029EE
:1013E000F7DB5E540DF581611846FFF789FEDDF8E5
:1013F0000804B84208DA0021FEF70CFF20B10620ED
:10140000FFF70EFE43203AE01820FFF709FE1820F0
:10141000FFF706FE50469EE701E036E03EE006207C
:10142000FFF7FEFDDDF8080495E700BFFFF77AF946
:10143000606801682068FFF7EFF8FFF7A7F82068F9
:10144000626801681368994208D01820FFF7E8FD28
:101450001820FFF7E5FD6FF001007CE7001D121D6D
:10146000C4E90002361DDDF80C04864206DADDF818
:101470000814226801EB0B008242D7D30620FFF745
:10148000CFFD08F10108012650E71820FFF7C8FD3D
:101490001820FFF7C5FD6FF002005CE74320FFF75F
:1014A000BFFD43E70030000814000020300C00208E
:1014B00002E008C8121F08C1002AFAD1704770471D
:1014C000002001E001C1121F002AFBD17047FFF785
:1014D00069FB4DF6DD544FF6FF75FFF74BFAA0F5AB
:1014E0005D41DD39A042F8D007DC88B1A0F54C4061
:1014F000CC38F2D1FFF720FA0EE0A1F5885111396E
:101500000CD0A1F588511139E7D1FFF747FAE4E78C
:10151000FFF712FB0028E0D0284603E0FFF756FB58
:101520000028F9D1FFF72CFAD7E700004C15000886
:101530000000002030000000B01400087C150008F6
:101540003000002000150000C0140008000000005A
:10155000000000000000000000000000000000008B
:10156000003000080000000002040608000000002F
:0C1570000102030401020304060708093D
:0400000508000131BD
:00000001FF
