:020000040800F2
:1000000030150020650100086F0B00088D070008FF
:100010006D0B0008110200082D11000800000000FF
:10002000000000000000000000000000490E000871
:100030001302000800000000710B0008F90F00080F
:100040007F0100087F0100087F0100087F01000890
:100050007F0100087F0100087F0100087F01000880
:100060007F0100087F0100087F0100087F01000870
:100070007F0100087F0100087F0100087F01000860
:100080007F0100087F0100087F0100087F01000850
:100090007F0100087F0100087F0100087F01000840
:1000A0007F0100087F0100087F0100087F01000830
:1000B0007F0100087F0100087F0100087F01000820
:1000C0007F0100087F0100087F0100087F01000810
:1000D0007F0100087F0100087F0100087F01000800
:1000E0007F0100087F0100087F0100087F010008F0
:1000F0007F0100087F0100087F0100087F010008E0
:100100007F0100087F0100087F0100087F010008CF
:100110007F0100087F0100087F0100087F010008BF
:100120007F0100087F0100087F0100087F010008AF
:10013000DFF80CD000F05AF8004800470F13000811
:1001400030150020EFF30980704780F3098870476D
:10015000EFF30880704780F30888704740BA704713
:10016000C0BA70470648804706480047FEE7FEE7EA
:10017000FEE7FEE7FEE7FEE7FEE7FEE7FEE7FEE757
:10018000FD0F00083101000840EA01039B0703D07E
:1001900009E008C9121F08C0042AFAD203E011F8C6
:1001A000013B00F8013B521EF9D27047D2B201E088
:1001B00000F8012B491EFBD270470022F6E710B56C
:1001C00013460A4604461946FFF7F0FF204610BDC5
:1001D00010B5002200E0521C835C8C5CA34201D16C
:1001E000002BF8D1D8B2E1B2401A10BD064C074D31
:1001F00006E0E06840F0010394E8070098471034F7
:10020000AC42F6D3FFF798FF6C1300088C1300087C
:10021000FEE770472DE9F34182B000240F46042524
:100220000094029800F08AF9064600F0D3F9DFF84E
:10023000488011E008EBC42000F030F90546012F9A
:1002400009D1611C684600F071FC684600F01EFE92
:100250000AA000F01BFE641CB44201D2042DE9D0B8
:1002600000F064F9B44201D1042D03D0002004B0A1
:10027000BDE8F0810120FAE70030000840000000EE
:100280002DE9F0474FF001094FF00208042700F074
:1002900047F91E4E05467068A84335D000F03AF97C
:1002A000044670682843706000F0BAF8054670682C
:1002B000411C03D0C04300F05DF80546E043400711
:1002C0000ED0E00700D18146A00701D44FF000080E
:1002D000600700D400273A464146484600F086F9B8
:1002E000042D04D00AA0BDE8F04700F0CFBD10A057
:1002F00000F0CCFD15480168154A01F4E061114396
:100300000160BFF3408FFEE712A0ECE70000002081
:100310004572726F723A20756E70726F7465637495
:10032000696F6E206661696C65642E0D0A000000BD
:1003300057726974652050726F74656374696F6E6B
:1003400020436C6F73652E0D0A0000000CED00E079
:100350000400FA05466C617368206E6F7420777232
:100360006974652070726F7465637465642E0D0A1C
:10037000000000002DE9F043C043C7B2C0F30726D8
:10038000C0F30745040E4FF40059484600F05EF9EB
:1003900004283BD1DFF87C801D4AC8F808201E4A9B
:1003A000C8F80820D8F8102042F01002C8F8102031
:1003B000FF2F06D019480780484600F047F9042867
:1003C0001BD1FF2E07D01548801C0680484600F040
:1003D0003DF9042811D1FF2D07D01048001D0580DC
:1003E000484600F033F9042807D1FF2C07D00B480A
:1003F000801D0480484600F029F9052806D0D8F869
:10040000102041F6EF731A40C8F81020BDE8F083C1
:100410002301674500200240AB89EFCD08F8FF1F9C
:1004200070B5A52500F06CF800B100254FF430261A
:10043000304600F00BF9042827D1154C1348A06072
:100440001448A060206940F020002061206940F03D
:1004500040002061304600F0F9F841F6EF760428BC
:100460000ED1206941F6DF7108402061206940F01B
:1004700010002061084805804FF4005000F0E6F8B5
:10048000052802D021693140216170BD23016745F3
:1004900000200240AB89EFCD00F8FF1F70B5054684
:1004A0004FF43026304600F0D1F8042811D1094C21
:1004B000206940F0020020616561206940F0400041
:1004C0002061304600F0C2F8216941F6FD7211400A
:1004D000216170BD0020024008490420CA68D2078B
:1004E00001D001207047CA68520701D50220704729
:1004F000C968C906FBD503207047000000200240F0
:1005000003490020C969890700D501207047000010
:10051000002002400148C069800870470020024066
:100520000148006A7047000000200240024801694B
:1005300041F08001016170470020024001B5009840
:10054000410503D0012101EBD02008BDC00A08BD40
:10055000F0B506464FF400570D46384600F076F8E1
:1005600004280CD1064C206940F001002061358040
:10057000384600F06BF82169BA1E11402161F0BDC8
:10058000002002402DE9F841064600204FF40057B4
:1005900000900D46384600F059F8042816D10C4C4E
:1005A000206940F0010020613580B846384600F0EF
:1005B0004DF8BF1E042806D1B61C280C00963080CA
:1005C000404600F043F8216939402161BDE8F881D7
:1005D00000200240034802494160034941607047DE
:1005E0002301674500200240AB89EFCD2DE9F041A2
:1005F000134C0746114816460D46A0601148A060EE
:100600004FF40058404600F021F8042813D1206927
:1006100040F01000206135430B493D4345F0F800A0
:100620000880404600F012F8052804D0216941F600
:10063000EF7211402161BDE8F081000023016745A0
:1006400000200240AB89EFCD02F8FF1F00B5034642
:10065000FFF742FF02E0FFF73FFF5B1E012803D0D8
:10066000002B00D1052000BD002BF4D1FAE7F0B536
:10067000CC78002204F00F03E40601D58C782343E4
:100680000C784FF00F0C4FF0010EDCB105680E88AE
:100690000EFA02F42640A64210D196000CFA06F794
:1006A00025EA070703FA06F5CE783D43282E02D047
:1006B000482E02D002E0446100E00461521C082A86
:1006C000E5D305600A88FF2A1CD94468002202F19C
:1006D00008060EFA06F50E882E40AE420ED19600A0
:1006E0000CFA06F7BC4303FA06F7CE783C43282EF3
:1006F00000D14561CE78482E00D10561521C082AF0
:10070000E5D34460F0BD000070B50546002400F05C
:1007100031F80A2802D008280BD004E0291911F872
:10072000011C0D2912D0802C07D30CA000F0AEFBC9
:10073000ECE7002CEBD0641EE9E7A0F120015E2974
:1007400001D90D28E3D12855641CE0E708A000F08A
:100750009DFB0020291901F8010C70BD20436D6438
:100760002073697A65206F7665722E0D0A0000008D
:100770000D0A000008B500208DF80000684600F062
:1007800065FB0028FAD09DF8000008BDFEE70000D8
:1007900008B500200090FA21684600F0C7F90AA0C9
:1007A00000F074FB684600F071FB07A000F06EFBE0
:1007B00001214FF4FA20FFF72DFD08B1002008BDFC
:1007C0004FF0FF3008BD000040000000014800F07D
:1007D00093BA00000028000801B5FFF7FBFE0122D4
:1007E0006946034800F08AFAFFF7A0FE08BD000042
:1007F0000028000830B5A1B080216846FFF7DDFC75
:100800003648374C01250068A0F10060000B2060DD
:100810003E2804D205FA00F0401EC04301E04FF02C
:1008200000406060FFF77CFE6168814301D0A560F5
:1008300001E00020A0602BA000F028FB31A000F018
:1008400025FB33A000F022FB34A000F01FFB36A0F4
:1008500000F01CFB36A000F019FBA06810B137A017
:1008600000F014FB38A000F011FB6846FFF74CFFC6
:1008700036A16846FFF7ACFCE0B136A16846FFF749
:10088000A7FCD0B135A16846FFF7A2FCC0B135A1E5
:100890006846FFF79DFCC8B134A16846FFF798FC95
:1008A00080B134A16846FFF793FCA0B133A000F0FB
:1008B000EDFAC0E74EF6EE6004E04DF6DD5001E0E3
:1008C0004CF6CC40FFF788FF21B030BD4FF6FF70EB
:1008D000FFF782FFAFE7FFF7D3FCACE7140000207F
:1008E000000000200D0A20494150204D61696E2012
:1008F0004D656E7520285620302E312E34290D0A74
:1009000000000000207570646174650D0A0000002D
:100910002075706C6F61640D0A00000020657261C3
:1009200073650D0A00000000206D656E750D0A00EC
:100930002072756E6170700D0A000000206469738A
:1009400077700D0A000000000D0A000075706461E8
:100950007465000075706C6F61640000657261738E
:10096000650000006D656E750000000072756E61B7
:1009700070700000646973777000000020496E7623
:10098000616C696420434D4420210D0A0000000081
:1009900070B50D4D28680D490840B0F1005F05D0D5
:1009A0000BA000F073FA4FF0FF3070BD0EA000F006
:1009B0006DFA6868104C2061E0602868FFF7CBFB97
:1009C000E0688047002070BD003000080000FE2F66
:1009D0002052756E20746F20617070206572726F86
:1009E000722E0D0A000000002052756E20746F20D8
:1009F0006170702E0D0A0000000000201FB54FF43A
:100A0000E13000900020ADF80400ADF80600ADF82C
:100A10000800ADF80C000C20ADF80A00684600F0A4
:100A2000E1F91FBD3EB500200090019002901D48E5
:100A300000F07EFB041E17DD1BA000F027FA1EA0AD
:100A400000F024FA1E4800F021FA2146684600F022
:100A50006DF81CA000F01AFA684600F017FA1CA006
:100A600000F014FA00203EBD601C09D0A01C0DD07F
:100A7000E41C11D019A000F009FA6FF003003EBD8C
:100A80001BA000F003FA4FF0FF303EBD1DA000F0A8
:100A9000FDF96FF001003EBD1FA000F0F7F96FF007
:100AA00002003EBD30000020205570646174652056
:100AB0004F766572210D0A00204E616D653A200067
:100AC000300C00200D0A2053697A653A200000009E
:100AD0002042797465732E0D0A0000002052656370
:100AE000656976652046696C65642E0D0A00000014
:100AF00020496D61676520546F6F20426967210D41
:100B00000A00000020557064617465206661696C9C
:100B10006564210D0A0000002041626F72746564F3
:100B200020627920757365722E0D0A00F0B50022DF
:100B30000D4B144615464FF00A0CB1FBF3F603FBC0
:100B4000161106F130078754521CB3FBFCF38618CC
:100B500016F8016C302E00D124B1641C6D1C0A2DD6
:100B6000EBD3F0BD0022F9E700CA9A3BFEE77047DD
:100B700070470000044A0029916901D0014300E058
:100B800081439161704700000010024030B5204A57
:100B90005168204B11F00C0103D0042901D0082921
:100BA00001D0036012E05168536801F470114FF0F6
:100BB000020413F4803F04EB914102D053689B037D
:100BC00001D5154B00E0134B5943016051680F23C9
:100BD00003EA1111114B5C5C0168E140416054680B
:100BE000072505EA14241C5D21FA04F48460546886
:100BF00005EAD4241B5DD940C1605268032303EA8F
:100C00009232064B1B1F9A5CB1FBF2F1016130BDC1
:100C10000010024000127A0000093D002000002070
:100C200070B50C46054604E0284600F00FF901288F
:100C300004D0641EF8D24FF0FF3070BD002070BDAC
:100C40002DE9F84F884600210646C8F80010924664
:100C500011466846FFF7E4FF4FF0FF39D0BB9DF81F
:100C6000001004293AD006DC01290DD002290DD04C
:100C700003292FD106E018290ED0412918D0612967
:100C800028D115E0402503E0802501E04FF4806580
:100C9000012431706F1D15E051466846FFF7C0FF13
:100CA000C0B99DF80000182814D1C8F8009015E0CC
:100CB0000120BDE8F88F30195146FFF7B1FF48B960
:100CC000641CA4B2BC42F6D3B178707881F0FF0105
:100CD000884201D04846ECE7C8F800500020E8E719
:100CE00010B5002305E030F8024B21F813405B1CDF
:100CF0009BB29342F7D310BD008870472DE9F05F97
:100D0000A0F10064154688468246B4F1005F50D2D7
:100D1000FFF760FCE70AC4F34906C6F58064A54204
:100D200000D82C46DFF890B04FF0006000EBC720F1
:100D300081464FF480622049FFF7D2FF00204FF632
:100D4000FF7206E033183BF81310914203D1401CA8
:100D500080B2A042F6D3A04223D24846FFF79EFBC2
:100D600000205A4606E038F810108319401C22F87B
:100D7000131080B2A042F6D348464FF480620E4969
:100D800000F01CF8A54210D0281B08EB4408A24430
:100D90007F1C002685B24FF48064A542C4D82C463F
:100DA000C2E7224641465046EAE7BDE8F05FFFF75A
:100DB000BDBBBDE8F09F0000300400202DE9F041EC
:100DC00016460F460546002407E037F8141028465B
:100DD000FFF7BEFBAD1C641CA4B2B442F5D3BDE862
:100DE000F081000038B5044601210520FFF7C2FE5E
:100DF00001218803FFF7BEFE18228DF803204FF46F
:100E00000072ADF8002003200D4D8DF802006946F8
:100E10002846FFF72CFC04228DF803201002ADF8C1
:100E2000000069462846FFF722FC2146054C204673
:100E300000F01EF90121204600F008F938BD00003D
:100E400000080140003801407047000010B504461A
:100E50002021054800F004F9002804D00248001DB4
:100E600000882070012010BD0038014010B5064CEC
:100E70000146204600F056F98021204600F0F0F8A7
:100E80000028F9D010BD00000038014010B504461C
:100E900002E0FFF7EBFF641C20780028F9D110BDB9
:100EA0000CB50022264800920192016841F480317D
:100EB00001604FF4A063016801F4003101910099D1
:100EC000491C0091019911B900999942F3D1016827
:100ED000890333D5012101911A490A6842F01002B1
:100EE0000A600A6822F003020A600A6842F00202FD
:100EF0000A604168416041684160416841F4806135
:100F00004160416821F47C114160416841F4E8117D
:100F10004160016841F08071016001688901FCD580
:100F2000416821F003014160416841F002014160E4
:100F30004168C1F381010229FAD10CBD01920CBDB7
:100F4000001002400020024070B5002302781C46C9
:100F5000302A04D14278782A0AD0582A08D06FF073
:100F60002F05C25CAAB16B2A2AD04B2A28D02CE0CC
:100F7000827802B30223C25C5AB1A2F14105052D69
:100F800009D9A2F16106052E05D91135092D06D919
:100F900030E00C6017E0A2F13006092E01D8303A9B
:100FA00004E0052D01D8373A00E0573A5B1C02EB0C
:100FB00004140B2BDFD301E00B2B00D3002070BDFA
:100FC0001BB1A00207E00120F6E76D2A01D04D2AEF
:100FD00003D113B120050860F5E7A2F13006092E10
:100FE00008D804EB840405EB44045B1C14440B2B6D
:100FF000B7D3E3E70020DFE7704700000F4810B5E4
:10100000016841F00101016041680D4A11404160F1
:1010100001680C4A11400160016821F480210160DF
:10102000416821F4FE0141604FF41F018160FFF728
:1010300037FF05494FF00060086010BD0010024006
:101040000000FFF8FFFFF6FE08ED00E000298189AF
:1010500002D041F4005101E021F400518181704738
:101060000246002012880A4200D00120704700008A
:1010700030B50446008A85B00D464CF6FF71084035
:10108000E98801432182A0894EF6F3110840A9881E
:101090002A8911436A8902431143A181A08A4FF62C
:1010A000FF410840A9890143A1826846FFF76EFD10
:1010B0001B48844201D1039800E00298A1890904E9
:1010C000002900EBC00101EB0010296802DA4FEAA9
:1010D000410101E04FEA8101B0FBF1F06422B0FB75
:1010E000F2F14FEA01114FEA11136FF018056B434B
:1010F00000EB8300A3891D044FF0320306D503EBF8
:10110000C000B0FBF2F000F0070005E003EB0010B8
:10111000B0FBF2F000F00F000843208105B030BDB5
:1011200000380140C1F3080181807047FEE70000EC
:101130002DE9F04FADF2244D804600206A4ECDF8E7
:101140000804DFF8A0A14320C6F800A0FFF78EFE38
:10115000002005460746EB46CDF820040024A146B2
:101160004FF480120DF21C416846FFF769FD88B10B
:10117000012869D0002F00DD6D1C052D7DDD1820B4
:10118000FFF774FE1820FFF771FE00200DF2244DCA
:10119000BDE8F08FDDF81C240025B2F1FF3F07D039
:1011A00042B19DF80100E1B2884207D015208AE0E3
:1011B0000620E8E70620FFF759FE8AE044B10BF16C
:1011C00003014046FEF7E0FF0027C6F804805FE019
:1011D0009DF80300B8B300200BF10301434F02E078
:1011E0003A54491C401C0A780AB1FF28F8DD002354
:1011F0003B541846491C0DF20C4702E03A54491C76
:10120000401C0A78202A01D01028F7DB3B540DF54A
:1012100081613846FFF798FEDDF80804B0F5002F2D
:1012200008DA0021FEF7F6FF20B10620FFF71EFEC8
:10123000432039E01820FFF719FE1820FFF716FEAB
:101240004FF0FF30A2E700E033E00620FFF70EFE8C
:1012500044E0FFF7BFF9706801683068FFF792F962
:10126000FFF764F93068716802680B689A420AD027
:101270001820FFF7FBFD182000E023E0FFF7F6FD44
:101280006FF0010082E7001D091D3F1DC6E9000146
:10129000DDF81C04874206DADDF80824316802EB29
:1012A0000A008142D5D30620FFF7E0FD641C012728
:1012B0000BE01820FFF7DAFD1820FFF7D7FD6FF0DD
:1012C000020063E74320FFF7D1FDB9F1000F3FF4BF
:1012D00047AFDDF8200400283FF440AFDDF80804F4
:1012E00054E700000030000814000020300C0020FB
:1012F00002E008C8121F08C1002AFAD170477047DF
:10130000002001E001C1121F002AFBD17047FFF746
:1013100075FB4DF6DD544FF6FF75FFF757FAA0F554
:101320005D41DD39A042F8D007DC88B1A0F54C4022
:10133000CC38F2D1FFF72CFA0EE0A1F58851113923
:101340000CD0A1F588511139E7D1FFF753FAE4E742
:10135000FFF71EFB0028E0D0284603E0FFF762FB02
:101360000028F9D1FFF738FAD7E700008C130008FE
:101370000000002030000000F0120008BC1300083C
:1013800030000020001500000013000800000000DD
:10139000000000000000000000000000000000004D
:1013A00000300008000000000204060800000000F1
:0C13B000010203040102030406070809FF
:0400000508000131BD
:00000001FF
