:020000040800F2
:1000000030110020550100086B0B00088D07000817
:10001000690B0008010200082D1100080000000013
:10002000000000000000000000000000550E000865
:1000300003020008000000006D0B0008F50F000827
:100040006F0100086F0100086F0100086F010008D0
:100050006F0100086F0100086F0100086F010008C0
:100060006F0100086F0100086F0100086F010008B0
:100070006F0100086F0100086F0100086F010008A0
:100080006F0100086F0100086F0100080000000008
:100090000000000000000000000000006F010008E8
:1000A0006F0100086F0100086F0100086F01000870
:1000B0006F0100086F0100086F0100086F01000860
:1000C0006F0100086F0100086F0100086F01000850
:1000D0006F0100086F0100086F0100086F01000840
:1000E0006F0100086F0100086F01000800000000A8
:1000F0000000000000000000000000000000000000
:1001000000000000000000000000000000000000EF
:1001100000000000000000006F0100086F010008EF
:10012000DFF80CD000F05AF800480047031300082D
:1001300030110020EFF30980704780F30988704781
:10014000EFF30880704780F30888704740BA704723
:10015000C0BA70470648804706480047FEE7FEE7FA
:10016000FEE7FEE7FEE7FEE7FEE7FEE7FEE7FEE767
:10017000F90F00082101000840EA01039B0703D0A2
:1001800009E008C9121F08C0042AFAD203E011F8D6
:10019000013B00F8013B521EF9D27047D2B201E098
:1001A00000F8012B491EFBD270470022F6E710B57C
:1001B00013460A4604461946FFF7F0FF204610BDD5
:1001C00010B5002200E0521C835C8C5CA34201D17C
:1001D000002BF8D1D8B2E1B2401A10BD064C074D41
:1001E00006E0E06840F0010394E807009847103407
:1001F000AC42F6D3FFF798FF6013000880130008A5
:10020000FEE770472DE9F34182B0002488460425BB
:100210000094029800F08CF9064600F0D5F9134FCF
:1002200013E000BF07EB842000F032F90546B8F177
:10023000010F09D1611C684600F074FC684600F0AB
:100240002BFE0BA000F028FE641CB44201D2042D4A
:10025000E8D000F065F9B44201D1042D03D00020AC
:1002600004B0BDE8F0810120FAE70000003000088A
:10027000400000002DE9F0474FF001094FF002085F
:10028000042700F047F91E4D06466868B04335D094
:1002900000F03AF9044668683043686000F0BAF844
:1002A00006466868411C03D0C04300F05DF806466E
:1002B000E04340070ED0E00700D18146A00701D4FB
:1002C0004FF00008600700D400273A4641464846F0
:1002D00000F086F9042E04D00AA0BDE8F04700F033
:1002E000DBBD10A000F0D8FD15480168154A01F4E7
:1002F000E06111430160BFF3408FFEE712A0ECE71D
:10030000000000204572726F723A20756E70726F35
:1003100074656374696F6E206661696C65642E0D27
:100320000A00000057726974652050726F7465632B
:1003300074696F6E20436C6F73652E0D0A000000A8
:100340000CED00E00400FA05466C617368206E6FE6
:10035000742077726974652070726F746563746558
:10036000642E0D0A000000002DE9F043C043C7B21F
:10037000C0F30726C0F30745040E4FF40059484662
:1003800000F05EF904283BD1DFF87C801D4AC8F8F4
:1003900008201E4AC8F80820D8F8102042F01002A1
:1003A000C8F81020FF2F06D019480780484600F0F3
:1003B00047F904281BD1FF2E07D01548801C068062
:1003C000484600F03DF9042811D1FF2D07D0104810
:1003D000001D0580484600F033F9042807D1FF2CA2
:1003E00007D00B48801D0480484600F029F90528F5
:1003F00006D0D8F8102041F6EF731A40C8F8102044
:10040000BDE8F0832301674500200240AB89EFCDB2
:1004100008F8FF1F70B5A52500F06CF800B10025A5
:100420004FF43026304600F00BF9042827D1154C44
:100430001348A0601448A060206940F020002061AB
:10044000206940F040002061304600F0F9F841F6A4
:10045000EF7604280ED1206941F6DF710840206153
:10046000206940F010002061084805804FF40050DA
:1004700000F0E6F8052802D021693140216170BD05
:100480002301674500200240AB89EFCD00F8FF1F34
:1004900070B505464FF43026304600F0D1F80428F8
:1004A00011D1094C206940F002002061656120698A
:1004B00040F040002061304600F0C2F8216941F66A
:1004C000FD721140216170BD0020024008490420E6
:1004D000CA68D20701D001207047CA68520701D507
:1004E00002207047C968C906FBD503207047000089
:1004F0000020024003490020C969890700D5012076
:1005000070470000002002400148C0698008704721
:10051000002002400148006A7047000000200240AD
:100520000248016941F080010161704700200240EA
:1005300001B50098810503D0012101EB902008BD91
:10054000800A08BDF0B506464FF400570D46384600
:1005500000F076F804280CD1064C206940F0010028
:1005600020613580384600F06BF82169BA1E1140D1
:100570002161F0BD002002402DE9F841064600202F
:100580004FF4005700900D46384600F059F8042803
:1005900016D10C4C206940F0010020613580B8462E
:1005A000384600F04DF8BF1E042806D1B61C280CB2
:1005B00000963080404600F043F8216939402161BF
:1005C000BDE8F88100200240034802494160034928
:1005D000416070472301674500200240AB89EFCDA1
:1005E0002DE9F041134C0746114816460D46A06010
:1005F0001148A0604FF40058404600F021F804284C
:1006000013D1206940F01000206135430B493D4370
:1006100045F0F8000880404600F012F8052804D0A4
:10062000216941F6EF7211402161BDE8F0810000BF
:100630002301674500200240AB89EFCD02F8FF1F80
:1006400000B50346FFF742FF03E000BFFFF73EFFA0
:100650005B1E012803D0002B00D1052000BD002B1C
:10066000F4D1FAE7F0B5CA78002502F00F03D206FC
:1006700001D58A7813430C784FF00F0E0122ECB1AC
:10068000D0F800400F8802FA05F63740B74211D182
:100690004FEA850C0EFA0CF724EA070703FA0CF46C
:1006A0003C43CF78282F02D0482F02D002E0466189
:1006B00000E006616D1C082DE4D304600C88FF2C5B
:1006C0001ED944685FF0000606F1080702FA07F534
:1006D0000F882F40AF420FD14FEA860C0EFA0CF76D
:1006E000BC4303FA0CF73C43CF78282F00D1456177
:1006F000CF78482F00D10561761C082EE4D34460E2
:10070000F0BD000070B505465FF0000400F032F85F
:100710000A2802D008280BD004E0291911F8011C7E
:100720000D2912D0802C07D30CA000F0B5FBEBE70D
:10073000002CEBD0641EE9E7A0F120015E2901D96D
:100740000D28E3D12855641CE0E709A000F0A4FBC4
:100750000020291901F8010C70BD000020436D64D0
:100760002073697A65206F7665722E0D0A0000008D
:100770000D0A000008B500208DF80000684600F062
:100780006BFB0028FAD09DF8000008BDFEE70000D2
:1007900008B5002000907421684600F0C3F90AA053
:1007A00000F07AFB684600F077FB07A000F074FBCE
:1007B00001214FF4E830FFF725FD08B1002008BD06
:1007C0004FF0FF3008BD000040000000014800F07D
:1007D00094BA00000028000801B5FFF7F5FE0122D9
:1007E0006946034800F08CFAFFF79AFE08BD000046
:1007F0000028000830B5A1B080216846FFF7D5FC7D
:100800003448354C01250068A0F10060000B2060E1
:1008100005FA00F0401EC0436060FFF77BFE616890
:10082000814301D0A56001E00020A0602BA000F072
:1008300033FB32A000F030FB33A000F02DFB35A0DD
:1008400000F02AFB36A000F027FB37A000F024FBC5
:10085000A06810B137A000F01FFB39A000F01CFB0E
:100860006846FFF74FFF37A16846FFF7A9FCE0B1E4
:1008700036A16846FFF7A4FCD0B136A16846FFF761
:100880009FFCC0B135A16846FFF79AFCC8B135A1FD
:100890006846FFF795FC80B134A16846FFF790FCED
:1008A000A0B134A000F0F8FAC0E74EF6EE6004E024
:1008B0004DF6DD5001E04CF6CC40FFF78DFF21B046
:1008C00030BD4FF6FF70FFF787FFAFE7FFF7D2FCB1
:1008D000ACE7000014000020000000200D0A2049B1
:1008E0004150204D61696E204D656E75202856205F
:1008F000302E312E30290D0A000000002075706462
:100900006174650D0A0000002075706C6F61640DE4
:100910000A0000002065726173650D0A0000000086
:10092000206D656E750D0A002072756E6170700D18
:100930000A0000002064697377700D0A000000004F
:100940000D0A0000757064617465000075706C6F4D
:100950006164000065726173650000006D656E750D
:100960000000000072756E6170700000646973773A
:100970007000000020496E76616C696420434D442C
:1009800020210D0A0000000070B50D4D28680D49AA
:100990000840B0F1005F05D00BA000F07DFA4FF0E9
:1009A000FF3070BD0EA000F077FA6868104C20612F
:1009B000E0602868FFF7C7FBE0688047002070BD53
:1009C000003000080000FE2F2052756E20746F204A
:1009D000617070206572726F722E0D0A0000000047
:1009E0002052756E20746F206170702E0D0A000009
:1009F000000000201FB54FF4E13000900020ADF85A
:100A00000400ADF80600ADF80800ADF80C000C20AD
:100A1000ADF80A00684600F0EBF91FBD3EB50020B6
:100A20000090019002901D4800F082FB041E17DD2B
:100A30001BA000F031FA1EA000F02EFA1E4800F0B4
:100A40002BFA2146684600F06DF81CA000F024FA4D
:100A5000684600F021FA1CA000F01EFA00203EBDFE
:100A6000601C09D0A01C0DD0E41C11D019A000F00E
:100A700013FA6FF003003EBD1BA000F00DFA4FF01B
:100A8000FF303EBD1DA000F007FA6FF001003EBD33
:100A90001FA000F001FA6FF002003EBD3000002000
:100AA00020557064617465204F766572210D0A00CF
:100AB000204E616D653A2000300800200D0A205359
:100AC000697A653A200000002042797465732E0D22
:100AD0000A00000020526563656976652046696CEE
:100AE00065642E0D0A00000020496D616765205481
:100AF0006F6F20426967210D0A0000002055706465
:100B0000617465206661696C6564210D0A000000EE
:100B10002041626F7274656420627920757365721A
:100B20002E0D0A00F0B500220E4B164614464FF06B
:100B30000A0C00BFB1FBF3F503FB151105F13007FB
:100B40008754521CB3FBFCF3851815F8015C302D5B
:100B500000D126B1761C641C0A2CEBD3F0BD002218
:100B6000F9E7000000CA9A3BFEE7704770470000B3
:100B7000044A0029916901D0014300E08143916159
:100B8000704700000010024030B521494A6812F059
:100B90000C03204A03D0042B01D0082B01D00260A3
:100BA00015E04B684C6803F470134FF0020514F421
:100BB000803F05EB934307D0CC6A04F00F04641C1C
:100BC000B2FBF4F25A43EAE7134A534303604A681C
:100BD0000F23124C03EA1212A35C0268DA4042604F
:100BE0004B68072505EA1323E35C22FA03F38360CD
:100BF0004B6805EAD323E35CDA40C260496803230B
:100C000003EA9131231F595CB2FBF1F1016130BD60
:100C10000010024000127A0000093D002000002070
:100C200070B50C46054604E0284600F015F9012889
:100C300004D0641EF8D24FF0FF3070BD002070BDAC
:100C40002DE9F84F884600210646C8F80010924664
:100C500011466846FFF7E4FF4FF0FF39D0BB9DF81F
:100C6000000004283AD006DC01280DD002280DD05F
:100C700003282FD106E018280ED0412818D061286B
:100C800028D115E0402403E0802401E04FF4806483
:100C900001253070671D15E051466846FFF7C0FF1B
:100CA000C0B99DF80000182814D1C8F8009015E0CC
:100CB0000120BDE8F88F70195146FFF7B1FF48B920
:100CC0006D1CADB2BD42F6D3B178707881F0FF01F2
:100CD000884201D04846ECE7C8F800400020E8E729
:100CE00010B5002306E000BF30F8024B21F8134096
:100CF0005B1C9BB29342F7D310BD00887047000085
:100D00002DE9F05FA0F100644FF0006815468A46B7
:100D10008346444553D2FFF757FCA70AC4F348065D
:100D2000C6F50074A54200D82C46DFF8989000BFA5
:100D30004FF0006000EB872080464FF4007221499D
:100D4000FFF7CEFF00204FF6FF7106E0331839F8A9
:100D500013208A4203D1401C80B2A042F6D3A042A5
:100D600025D24046FFF794FB0020494607E000BF2C
:100D70003AF810208319401C21F8132080B2A042B9
:100D8000F6D3104940464FF4007200BF00F01CF843
:100D9000A54210D0281B0AEB440AA3447F1C00265E
:100DA00085B24FF40074A542C2D82C46C0E7224653
:100DB00051465846EAE7BDE8F05FFFF7B1BBBDE832
:100DC000F09F0000300400202DE9F04116460F4648
:100DD0000546002408E000BF37F814102846FFF746
:100DE000B1FBAD1C641CA4B2B442F5D3BDE8F081E4
:100DF00038B5044601210520FFF7BAFE012188031A
:100E0000FFF7B6FE18208DF803004FF40070ADF820
:100E1000000003200D4D8DF8020069462846FFF7BB
:100E200021FC04208DF803000002ADF800006946A3
:100E30002846FFF717FC2146054C204600F018F91C
:100E40000121204600F002F938BD000000080140F1
:100E5000003801407047000010B5044620210548C5
:100E600000F0FEF8002804D00248001D0088207021
:100E7000012010BD0038014010B5064C0146204647
:100E800000F050F98021204600F0EAF80028F9D05F
:100E900010BD00000038014010B5044603E000BF5B
:100EA000FFF7EAFF641C20780028F9D110BD00008C
:100EB0000CB500211F4801910091026842F4803274
:100EC00002604FF4A063026802F400320092019ABB
:100ED000521C0192009A12B9019A9A42F3D1026807
:100EE000920324D50121009141684160416841602D
:100EF00041684160416821F47C114160416841F4DE
:100F000098114160016841F08071016001688901B8
:100F1000FCD5416821F003014160416841F00201C4
:100F200041604168C1F381010229FAD10CBD0091F1
:100F30000CBD00000010024070B50022047813467A
:100F4000302C04D14478782C0AD0582C08D06FF07B
:100F50002F05845C74B36B2C2ED04B2C2CD030E03E
:100F600082780AB30224025D5AB1A2F14105052D2F
:100F70000AD9A2F16106052E06D91135092D07D926
:100F800013E001200B6011E0A2F13006092E01D818
:100F9000303A04E0052D01D8373A00E0573A641C96
:100FA00002EB03130B2CDED302E000200B2C00D34A
:100FB000002070BD0B6002E01AB1980207E001202A
:100FC00015E06D2C01D04D2C03D112B1180508602D
:100FD000F5E7A4F13006092E08D803EB830305EBEF
:100FE0004303521C23440B2AB3D3E1E700200B2A0E
:100FF000DED270BD70470000104810B5016841F0A6
:101000000101016041680E4A1140416001680D4ACA
:1010100011400160016821F480210160416821F4E0
:10102000FE0141604FF41F0181600021C162FFF7A2
:101030003FFF05494FF00060086010BD00100240FE
:101040000000FFF8FFFFF6FE08ED00E000298189AF
:1010500002D041F4005101E021F400518181704738
:101060000246002012880A4200D00120704700008A
:1010700030B50446008A85B00D464CF6FF71084035
:10108000E98801432182A1894EF6F3100140A88826
:101090002A8910436A890A431043A081A08A4FF627
:1010A000FF410840A9890143A1826846FFF76CFD12
:1010B0001B48844201D1039800E00298A1890904E9
:1010C000002900EBC00101EB0010296802DA4FEAA9
:1010D000410101E04FEA8101B0FBF1F06422B0FB75
:1010E000F2F14FEA01114FEA11136FF018056B434B
:1010F00000EB8300A3891D044FF0320306D503EBF8
:10110000C000B0FBF2F000F0070005E003EB0010B8
:10111000B0FBF2F000F00F000843208105B030BDB5
:1011200000380140C1F3080181807047FEE70000EC
:101130002DE9F04FADF2244D80460020674CCDF8EC
:101140000804DFF894B14320C4F800B0FFF794FE20
:101150000020054607464FF480194FF0FF3ACDF8BE
:10116000100400264A460DF20C416846FFF768FD60
:1011700088B101286BD0002F00DD6D1C052D67DDC7
:101180001820FFF779FE1820FFF776FE00200DF2F9
:10119000244DBDE8F08FDDF80C240025524507D022
:1011A00042B19DF80100F1B288420BD015208FE0CA
:1011B0000620E9E70620FFF75FFEDDF810040028AF
:1011C000CFD049E046B10DF103014046FEF7D4FF10
:1011D0000027C4F8048060E09DF80300B0B300214C
:1011E0000DF103003E4F02E07A54401C491C027886
:1011F0000AB1FF29F8DD00237B541946401C0DF28B
:10120000144702E07A54401C491C0278202A01D07D
:101210001029F7DB7B540DF581613846FFF78CFE12
:10122000DDF80804B0F5003F08DA0021FEF7EAFF18
:1012300020B10620FFF720FE43203AE01820FFF7F8
:101240001BFE1820FFF718FE5046A0E701E035E02E
:101250003DE00620FFF710FEDDF8080497E700BF29
:10126000FFF7B2F9606801682068FFF785F9FFF7BA
:1012700057F92068616802680B689A4208D0182004
:10128000FFF7FAFD1820FFF7F7FD6FF001007EE78A
:10129000001D091D3F1DC4E90001DDF80C04874253
:1012A00006DADDF80824206802EB0B018842D7D368
:1012B0000620FFF7E1FD761C012753E71820FFF712
:1012C000DBFD1820FFF7D8FD6FF002005FE7432039
:1012D000FFF7D2FD46E700000030000814000020B0
:1012E0003008002002E008C8121F08C1002AFAD105
:1012F00070477047002001E001C1121F002AFBD196
:101300007047FFF777FB4DF6DD544FF6FF75FFF79B
:101310005DFAA0F55D41DD39A042F8D007DC88B167
:10132000A0F54C40CC38F2D1FFF732FA0EE0A1F52F
:10133000885111390CD0A1F588511139E7D1FFF747
:1013400059FAE4E7FFF720FB0028E0D0284603E045
:10135000FFF764FB0028F9D1FFF73EFAD7E700005A
:10136000801300080000002030000000E412000894
:10137000B01300083000002000110000F412000833
:10138000000000000000000000000000000000005D
:101390000000000000300008000000000204060801
:1013A000000000000102030401020304060708090B
:0400000508000121CD
:00000001FF
