:020000040800F2
:100000003011002021010008470B000859070008A3
:10001000450B0008CD0100085D110008000000003C
:10002000000000000000000000000000690E000851
:10003000CF01000800000000490B0008291000084B
:100040003B0100083B0100083B0100083B010008A0
:100050003B0100083B0100083B0100083B01000890
:100060003B0100083B0100083B0100083B01000880
:100070003B0100083B0100083B0100083B01000870
:100080003B0100083B0100083B0100083B01000860
:100090003B0100083B0100083B0100083B01000850
:1000A0003B0100083B0100083B0100083B01000840
:1000B0003B0100083B0100083B0100083B01000830
:1000C0003B0100083B0100083B0100083B01000820
:1000D0003B0100083B0100083B0100083B01000810
:1000E0003B0100083B0100083B010008DFF80CD091
:1000F00000F05AF800480047331300083011002080
:10010000EFF30980704780F309887047EFF30880A8
:10011000704780F30888704740BA7047C0BA70478C
:100120000648804706480047FEE7FEE7FEE7FEE791
:10013000FEE7FEE7FEE7FEE7FEE7FEE72D1000081C
:10014000ED00000840EA01039B0703D009E008C95D
:10015000121F08C0042AFAD203E011F8013B00F88C
:10016000013B521EF9D27047D2B201E000F8012BD8
:10017000491EFBD270470022F6E710B513460A4627
:1001800004461946FFF7F0FF204610BD10B50022C7
:1001900000E0521C835C8C5CA34201D1002BF8D19F
:1001A000D8B2E1B2401A10BD064C074D06E0E06837
:1001B00040F0010394E8070098471034AC42F6D3AE
:1001C000FFF798FF90130008B0130008FEE7704790
:1001D0002DE9F34182B0002488460425009402985A
:1001E00000F08CF9064600F0D5F9134F13E000BF7C
:1001F00007EB842000F032F90546B8F1010F09D170
:10020000611C684600F07CFC684600F04FFE0BA0C5
:1002100000F04CFE641CB44201D2042DE8D000F082
:1002200065F9B44201D1042D03D0002004B0BDE82B
:10023000F0810120FAE700000030000840000000D3
:100240002DE9F0474FF001094FF00208042700F0B4
:1002500047F91E4D06466868B04335D000F03AF9BC
:10026000044668683043686000F0BAF8064668687B
:10027000411C03D0C04300F05DF80646E043400750
:100280000ED0E00700D18146A00701D44FF000084E
:10029000600700D400273A464146484600F086F9F8
:1002A000042E04D00AA0BDE8F04700F0FFBD10A066
:1002B00000F0FCFD15480168154A01F4E0611143A6
:1002C0000160BFF3408FFEE712A0ECE700000020C2
:1002D0004572726F723A20756E70726F74656374D6
:1002E000696F6E206661696C65642E0D0A000000FE
:1002F00057726974652050726F74656374696F6EAC
:1003000020436C6F73652E0D0A0000000CED00E0B9
:100310000400FA05466C617368206E6F7420777272
:100320006974652070726F7465637465642E0D0A5C
:10033000000000002DE9F043C043C7B2C0F3072618
:10034000C0F30745040E4FF40059484600F05EF92B
:1003500004283BD1DFF87C801D4AC8F808201E4ADB
:10036000C8F80820D8F8102042F01002C8F8102071
:10037000FF2F06D019480780484600F047F90428A7
:100380001BD1FF2E07D01548801C0680484600F080
:100390003DF9042811D1FF2D07D01048001D05801C
:1003A000484600F033F9042807D1FF2C07D00B484A
:1003B000801D0480484600F029F9052806D0D8F8A9
:1003C000102041F6EF731A40C8F81020BDE8F08302
:1003D0002301674500200240AB89EFCD08F8FF1FDD
:1003E00070B5A52500F06CF800B100254FF430265B
:1003F000304600F00BF9042827D1154C1348A060B3
:100400001448A060206940F020002061206940F07D
:1004100040002061304600F0F9F841F6EF760428FC
:100420000ED1206941F6DF7108402061206940F05B
:1004300010002061084805804FF4005000F0E6F8F5
:10044000052802D021693140216170BD2301674533
:1004500000200240AB89EFCD00F8FF1F70B50546C4
:100460004FF43026304600F0D1F8042811D1094C61
:10047000206940F0020020616561206940F0400081
:100480002061304600F0C2F8216941F6FD7211404A
:10049000216170BD0020024008490420CA68D207CB
:1004A00001D001207047CA68520701D50220704769
:1004B000C968C906FBD50320704700000020024030
:1004C00003490020C969890700D501207047000051
:1004D000002002400148C0698008704700200240A7
:1004E0000148006A7047000000200240024801698C
:1004F00041F08001016170470020024001B5009881
:10050000810503D0012101EB902008BD800A08BDC0
:10051000F0B506464FF400570D46384600F076F821
:1005200004280CD1064C206940F001002061358080
:10053000384600F06BF82169BA1E11402161F0BD08
:10054000002002402DE9F841064600204FF40057F4
:1005500000900D46384600F059F8042816D10C4C8E
:10056000206940F0010020613580B846384600F02F
:100570004DF8BF1E042806D1B61C280C009630800A
:10058000404600F043F8216939402161BDE8F88117
:10059000002002400348024941600349416070471E
:1005A0002301674500200240AB89EFCD2DE9F041E2
:1005B000134C0746114816460D46A0601148A0602E
:1005C0004FF40058404600F021F8042813D1206968
:1005D00040F01000206135430B493D4345F0F800E1
:1005E0000880404600F012F8052804D0216941F641
:1005F000EF7211402161BDE8F081000023016745E1
:1006000000200240AB89EFCD02F8FF1F00B5034682
:10061000FFF742FF03E000BFFFF73EFF5B1E01282C
:1006200003D0002B00D1052000BD002BF4D1FAE748
:10063000F0B5CA78002502F00F03D20601D58A78FA
:1006400013430C784FF00F0E0122ECB1D0F80040AC
:100650000F8802FA05F63740B74211D14FEA850CF0
:100660000EFA0CF724EA070703FA0CF43C43CF78A0
:10067000282F02D0482F02D002E0466100E0066138
:100680006D1C082DE4D304600C88FF2C1ED944682F
:100690005FF0000606F1080702FA07F50F882F4001
:1006A000AF420FD14FEA860C0EFA0CF7BC4303FAA7
:1006B0000CF73C43CF78282F00D14561CF78482FE5
:1006C00000D10561761C082EE4D34460F0BD000023
:1006D00070B505465FF0000400F032F80A2802D039
:1006E00008280BD004E0291911F8011C0D2912D09B
:1006F000802C07D30CA000F0D9FBEBE7002CEBD04B
:10070000641EE9E7A0F120015E2901D90D28E3D19B
:100710002855641CE0E709A000F0C8FB0020291957
:1007200001F8010C70BD000020436D642073697AEC
:1007300065206F7665722E0D0A0000000D0A00001C
:1007400008B500208DF80000684600F08FFB0028F7
:10075000FAD09DF8000008BDFEE7000008B50020B3
:1007600000907421684600F0CBF90AA000F09EFBCF
:10077000684600F09BFB08A000F098FB01214FF4B5
:10078000E830FFF725FD08B1002008BD4FF0FF302D
:1007900008BD00002040000040000000014800F0BB
:1007A000B6BA00000028000801B5FFF7F3FE0122E9
:1007B0006946034800F0AEFAFFF798FE08BD000056
:1007C0000028000830B5A1B080216846FFF7D3FCAF
:1007D0003448354C01250068A0F10060000B206012
:1007E00005FA00F0401EC0436060FFF779FE6168C3
:1007F000814301D0A56001E00020A0602BA000F0A3
:1008000055FB32A000F052FB33A000F04FFB35A0A7
:1008100000F04CFB36A000F049FB37A000F046FB8F
:10082000A06810B137A000F041FB39A000F03EFBFA
:100830006846FFF74DFF37A16846FFF7A7FCE0B118
:1008400036A16846FFF7A2FCD0B136A16846FFF793
:100850009DFCC0B135A16846FFF798FCC8B135A131
:100860006846FFF793FC80B134A16846FFF78EFC21
:10087000A0B134A000F01AFBC0E74EF6EE6004E031
:100880004DF6DD5001E04CF6CC40FFF78DFF21B076
:1008900030BD4FF6FF70FFF787FFAFE7FFF7D0FCE3
:1008A000ACE7000014000020000000200D0A2049E1
:1008B0004150204D61696E204D656E75202856208F
:1008C000302E312E34290D0A00000000207570648E
:1008D0006174650D0A0000002075706C6F61640D15
:1008E0000A0000002065726173650D0A00000000B7
:1008F000206D656E750D0A002072756E6170700D49
:100900000A0000002064697377700D0A000000007F
:100910000D0A0000757064617465000075706C6F7D
:100920006164000065726173650000006D656E753D
:100930000000000072756E6170700000646973776A
:100940007000000020496E76616C696420434D445C
:1009500020210D0A0000000070B50D4D28680D49DA
:100960000840B0F1005F05D00BA000F09FFA4FF0F7
:10097000FF3070BD0EA000F099FA6868114C20613C
:10098000E0602868FFF7C5FBE0688047002070BD85
:10099000003000080000FE2F0D0A2052756E2074F2
:1009A0006F20617070206572726F722E0D0A0000E8
:1009B0000D0A2052756E20746F206170702E0D0A22
:1009C00000000000000000201FB54FF4E13000904F
:1009D0000020ADF80400ADF80600ADF80800ADF851
:1009E0000C000C20ADF80A00684600F00BFA1FBDA1
:1009F0003EB500200090019002901D4800F0B0FB31
:100A0000041E17DD1BA000F051FA1FA000F04EFAE3
:100A10001F4800F04BFA2146684600F071F81DA00F
:100A200000F044FA684600F041FA1DA000F03EFADA
:100A300000203EBD601C09D0A01C0DD0E41C11D0CC
:100A40001AA000F033FA6FF003003EBD1CA000F0C6
:100A50002DFA4FF0FF303EBD1EA000F027FA6FF0D8
:100A600001003EBD20A000F021FA6FF002003EBD63
:100A7000300000200D0A20557064617465204F76A7
:100A80006572210D0A000000204E616D653A20005C
:100A9000300800200D0A2053697A653A20000000D2
:100AA0002042797465732E0D0A00000020526563A0
:100AB000656976652046696C65642E0D0A00000044
:100AC0000D0A20496D61676520546F6F2042696788
:100AD000210D0A000D0A205570646174652066615D
:100AE000696C6564210D0A000D0A2041626F727401
:100AF000656420627920757365722E0D0A0000000E
:100B0000F0B500220E4B164614464FF00A0C00BFFB
:100B1000B1FBF3F503FB151105F130078754521CA7
:100B2000B3FBFCF3851815F8015C302D00D126B11C
:100B3000761C641C0A2CEBD3F0BD0022F9E7000000
:100B400000CA9A3BFEE7704770470000044A00293C
:100B5000916901D0014300E0814391617047000039
:100B60000010024030B520494A6812F00C031F4AB9
:100B700003D0042B01D0082B22D002604A680F2337
:100B80001B4C03EA1212A35C0268DA4042604B6815
:100B9000072505EA1323E35C22FA03F383604B681D
:100BA00005EAD323E35C22FA03F2C2604968032317
:100BB00003EA9131231F595CB2FBF1F1016130BDB1
:100BC0004A684B6802F470124FF0020413F4803F3D
:100BD00004EB924202D04B689B0301D5054B00E029
:100BE000024B5A43C9E700000010024000127A008D
:100BF0002000002000093D0070B50C46054604E0C9
:100C0000284600F033F9012804D0641EF8D24FF0D2
:100C1000FF3070BD002070BD2DE9F84F88460021DF
:100C20000646C8F80010924611466846FFF7E4FFF2
:100C30004FF0FF3978BB9DF80000A2281DD010DCD2
:100C4000182832D006DC01281DD0022824D0042820
:100C500049D14CE0412834D0612832D0A12842D17A
:100C600009E0A0F1A30107293DD2DFE801F0080A5D
:100C70000C0E11151800082413E0102411E0202494
:100C80000FE040240DE080240BE04FF4807408E076
:100C90004FF4007405E026E04FF4806401E04FF467
:100CA000006401253070671D15E051466846FFF766
:100CB000A3FFC0B99DF80000182814D1C8F800900F
:100CC00015E00120BDE8F88F70195146FFF794FF39
:100CD00048B96D1CADB2BD42F6D3B178707881F0E1
:100CE000FF01884201D04846ECE7C8F800400020E8
:100CF000E8E7000010B5002306E000BF30F8024B23
:100D000021F813405B1C9BB29342F7D310BD0088BF
:100D1000704700002DE9F05FA0F100644FF000681B
:100D200015468A468346444553D2FFF733FCA70A4B
:100D3000C4F34806C6F50074A54200D82C46DFF877
:100D4000989000BF4FF0006000EB872080464FF482
:100D500000722149FFF7CEFF00204FF6FF7106E039
:100D6000331839F813208A4203D1401C80B2A042C4
:100D7000F6D3A04225D24046FFF770FB002049463B
:100D800007E000BF3AF810208319401C21F8132017
:100D900080B2A042F6D3104940464FF4007200BF23
:100DA00000F01CF8A54210D0281B0AEB440AA3440B
:100DB0007F1C002685B24FF40074A542C2D82C4691
:100DC000C0E7224651465846EAE7BDE8F05FFFF724
:100DD0008DBBBDE8F09F0000300400202DE9F041FC
:100DE00016460F460546002408E000BF37F81410E9
:100DF0002846FFF78DFBAD1C641CA4B2B442F5D3AA
:100E0000BDE8F08138B5044601210520FFF79EFEBC
:100E100001218803FFF79AFE18208DF803004FF494
:100E20000070ADF8000003200D4D8DF802006946FA
:100E30002846FFF7FDFB04208DF803000002ADF803
:100E4000000069462846FFF7F3FB2146054C204683
:100E500000F026F90121204600F010F938BD00000D
:100E600000080140003801407047000010B50446FA
:100E70002021054800F00CF9002804D00248001D8C
:100E800000882070012010BD0038014010B5064CCC
:100E90000146204600F05EF98021204600F0F8F877
:100EA0000028F9D010BD00000038014010B50446FC
:100EB00003E000BFFFF7EAFF641C20780028F9D1A7
:100EC00010BD00000CB50021264801910091026878
:100ED00042F4803202604FF4A063026802F40032F0
:100EE0000092019A521C0192009A12B9019A9A42F8
:100EF000F3D10268920333D5012100911A490A689F
:100F000042F010020A600A6822F003020A600A68CE
:100F100042F002020A6041684160416841604168F4
:100F200041F480614160416821F47C114160416875
:100F300041F4E8114160016841F08071016001688D
:100F40008901FCD5416821F003014160416841F00D
:100F5000020141604168C1F381010229FAD10CBD4F
:100F600000910CBD001002400020024070B500222C
:100F700004781346302C04D14478782C0AD0582CAD
:100F800008D06FF02F05845C74B36B2C2ED04B2CE3
:100F90002CD030E082780AB30224025D5AB1A2F16B
:100FA0004105052D0AD9A2F16106052E06D9113594
:100FB000092D07D913E001200B6011E0A2F13006E2
:100FC000092E01D8303A04E0052D01D8373A00E067
:100FD000573A641C02EB03130B2CDED302E0002013
:100FE0000B2C00D3002070BD0B6002E01AB19802F8
:100FF00007E0012015E06D2C01D04D2C03D112B17A
:1010000018050860F5E7A4F13006092E08D803EBAF
:10101000830305EB4303521C23440B2AB3D3E1E7BC
:1010200000200B2ADED270BD704700000F4810B5BB
:10103000016841F00101016041680D4A11404160C1
:1010400001680C4A11400160016821F480210160AF
:10105000416821F4FE0141604FF41F018160FFF7F8
:1010600031FF05494FF00060086010BD00100240DC
:101070000000FFF8FFFFF6FE08ED00E0002981897F
:1010800002D041F4005101E021F400518181704708
:101090000246002012880A4200D00120704700005A
:1010A00030B50446008A85B00D464CF6FF71084005
:1010B000E98801432182A1894EF6F3100140A888F6
:1010C0002A8910436A890A431043A081A08A4FF6F7
:1010D000FF410840A9890143A1826846FFF742FD0C
:1010E0001B48844201D1039800E00298A1890904B9
:1010F000002900EBC00101EB0010296802DA4FEA79
:10110000410101E04FEA8101B0FBF1F06422B0FB44
:10111000F2F14FEA01114FEA11136FF018056B431A
:1011200000EB8300A3891D044FF0320306D503EBC7
:10113000C000B0FBF2F000F0070005E003EB001088
:10114000B0FBF2F000F00F000843208105B030BD85
:1011500000380140C1F3080181807047FEE70000BC
:101160002DE9F04FADF2244D80460020674CCDF8BC
:101170000804DFF894B14320C4F800B0FFF786FEFE
:101180000020054607464FF480194FF0FF3ACDF88E
:10119000100400264A460DF20C416846FFF73CFD5C
:1011A00088B101286BD0002F00DD6D1C052D67DD97
:1011B0001820FFF76BFE1820FFF768FE00200DF2E5
:1011C000244DBDE8F08FDDF80C240025524507D0F2
:1011D00042B19DF80100F1B288420BD015208FE09A
:1011E0000620E9E70620FFF751FEDDF8100400288D
:1011F000CFD049E046B10DF103014046FEF7A2FF12
:101200000027C4F8048060E09DF80300B0B300211B
:101210000DF103003E4F02E07A54401C491C027855
:101220000AB1FF29F8DD00237B541946401C0DF25A
:10123000144702E07A54401C491C0278202A01D04D
:101240001029F7DB7B540DF581613846FFF78EFEE0
:10125000DDF80804B0F5003F08DA0021FEF7B8FF1A
:1012600020B10620FFF712FE43203AE01820FFF7D6
:101270000DFE1820FFF70AFE5046A0E701E035E01A
:101280003DE00620FFF702FEDDF8080497E700BF07
:10129000FFF780F9606801682068FFF753F9FFF7EE
:1012A00025F92068616802680B689A4208D0182006
:1012B000FFF7ECFD1820FFF7E9FD6FF001007EE776
:1012C000001D091D3F1DC4E90001DDF80C04874223
:1012D00006DADDF80824206802EB0B018842D7D338
:1012E0000620FFF7D3FD761C012753E71820FFF7F0
:1012F000CDFD1820FFF7CAFD6FF002005FE7432025
:10130000FFF7C4FD46E7000000300008140000208D
:101310003008002002E008C8121F08C1002AFAD1D4
:1013200070477047002001E001C1121F002AFBD165
:101330007047FFF749FB4DF6DD544FF6FF75FFF799
:101340002DFAA0F55D41DD39A042F8D007DC88B167
:10135000A0F54C40CC38F2D1FFF700FA0EE0A1F531
:10136000885111390CD0A1F588511139E7D1FFF717
:1013700029FAE4E7FFF7F0FA0028E0D0284603E076
:10138000FFF736FB0028F9D1FFF70EFAD7E7000088
:10139000B013000800000020300000001413000803
:1013A000E0130008300000200011000024130008A2
:1013B000000000000000000000000000000000002D
:1013C00000000000003000080000000002040608D1
:1013D00000000000010203040102030406070809DB
:04000005080000ED02
:00000001FF
