:020000040800F2
:1000000058150020650100082B050008170400089A
:1000100029050008D1010008030E000800000000B7
:100020000000000000000000000000005D08000863
:1000300015020008000000002D050008A90C0008AA
:100040007F0100087F0100087F0100087F01000890
:100050007F0100087F0100087F0100087F01000880
:100060007F0100087F0100087F0100087F01000870
:100070007F0100087F0100087F0100087F01000860
:100080007F0100087F0100087F0100087F01000850
:100090007F0100087F0100087F0100087F01000840
:1000A0007F0100087F0100087F0100087F01000830
:1000B0007F0100087F0100087F0100087F01000820
:1000C0007F0100087F0100087F0100087F01000810
:1000D0007F0100087F0100087F0100087F01000800
:1000E0007F0100087F0100087F0100087F010008F0
:1000F0007F0100087F0100087F0100087F010008E0
:100100007F0100087F0100087F0100087F010008CF
:100110007F0100087F0100087F0100087F010008BF
:100120007F0100087F0100087F0100087F010008AF
:10013000DFF80CD000F03AF800480047D71200086A
:1001400058150020EFF30980704780F30988704745
:10015000EFF30880704780F30888704740BA704713
:10016000C0BA70470648804706480047FEE7FEE7EA
:10017000FEE7FEE7FEE7FEE7FEE7FEE7FEE7FEE757
:10018000AD0C00083101000840EA01039B0703D0D1
:1001900009E008C9121F08C0042AFAD203E011F8C6
:1001A000013B00F8013B521EF9D27047064C074D47
:1001B00006E0E06840F0010394E807009847103437
:1001C000AC42F6D3FFF7B8FFA4130008C41300082D
:1001D000FEE700000022014403E000BF10F8013BED
:1001E0001A448842FAD3D0B27047000030B50446B2
:1001F0000020651804E000BF14F8011B00F0EEFDBC
:10020000AC42F9D3002100F0E9FDBDE83040002107
:1002100000F0E4BD7047000070B505464FF430268D
:10022000304600F08BF8042811D1094C206940F0C9
:10023000020020616561206940F040002061304685
:1002400000F07CF8216941F6FD721140216170BD1A
:100250000020024008490420CA68D20701D00120CA
:100260007047CA68520701D502207047C968C9069D
:10027000FBD50320704700000020024002480169BE
:1002800041F08001016170470020024001B50098F3
:10029000410503D0012101EBD02008BDC00A08BDF3
:1002A000F0B506464FF400570D46384600F046F8C4
:1002B00004280CD1064C206940F0010020613580F3
:1002C000384600F03BF82169BA1E11402161F0BDAB
:1002D000002002402DE9F841064600204FF4005767
:1002E00000900D46384600F029F8042816D10C4C31
:1002F000206940F0010020613580B846384600F0A2
:100300001DF8BF1E042806D1B61C280C00963080AC
:10031000404600F013F8216939402161BDE8F881B9
:100320000020024003480249416003494160704790
:100330002301674500200240AB89EFCD00B503469D
:10034000FFF788FF03E000BFFFF784FF5B1E012873
:1003500003D0002B00D1052000BD002BF4D1FAE71B
:10036000F0B5CA78002502F00F03D20601D58A78CD
:1003700013430C784FF00F0E0122ECB1D0F800407F
:100380000F8802FA05F63740B74211D14FEA850CC3
:100390000EFA0CF724EA070703FA0CF43C43CF7873
:1003A000282F02D0482F02D002E0466100E006610B
:1003B0006D1C082DE4D304600C88FF2C1ED9446802
:1003C0005FF0000606F1080702FA07F50F882F40D4
:1003D000AF420FD14FEA860C0EFA0CF7BC4303FA7A
:1003E0000CF73C43CF78282F00D14561CF78482FB8
:1003F00000D10561761C082EE4D34460F0BD08B539
:1004000000208DF80000684600F0FAFA0028FAD0C3
:100410009DF8000008BDFEE7014800F054B9000057
:100420000028000801B5FFF77DFF01226946034857
:1004300000F04CF9FFF722FF08BD0000002800087B
:1004400070B50D4D28680D490840B0F1005F04D02B
:10045000BDE870400AA000F069BB10A000F066FB88
:100460006868144C2061E0602868FFF774FEE0685B
:10047000BDE8704000470000003000080000FE2F7B
:100480004A756D7020746F2075736572206170708D
:10049000206572726F722E0D0A0A00004A756D7027
:1004A00020746F2075736572206170702E0D0A0ABA
:1004B000000000002C0000201FB54FF4E130009038
:1004C0000020ADF80400ADF80600ADF80800ADF866
:1004D0000C000C20ADF80A006946002000F06CF911
:1004E0001FBD0000F0B500220E4B164614464FF01B
:1004F0000A0C00BFB1FBF3F503FB151105F1300742
:100500008754521CB3FBFCF3851815F8015C302DA1
:1005100000D126B1761C641C0A2CEBD3F0BD00225E
:10052000F9E7000000CA9A3BFEE7704770470000F9
:10053000044A0029D16901D0014300E08143D1611F
:100540007047000000100240044A0029916901D060
:10055000014300E0814391617047000000100240B8
:1005600030B520494A6812F00C031F4A03D0042B0F
:1005700001D0082B22D002604A680F231B4C03EAEB
:100580001212A35C0268DA4042604B68072505EA54
:100590001323E35C22FA03F383604B6805EAD32359
:1005A000E35C22FA03F2C2604968032303EA913153
:1005B000231F595CB2FBF1F1016130BD4A684B6801
:1005C00002F470124FF0020413F4803F04EB9242E5
:1005D00002D04B689B0301D5054B00E0024B5A4308
:1005E000C9E700000010024000127A004400002019
:1005F00000093D0070B50C46054604E0284600F0B1
:10060000FFF9012804D0641EF8D24FF0FF3070BD0E
:10061000002070BD2DE9F84F884600210646C8F835
:100620000010924611466846FFF7E4FF4FF0FF398D
:10063000B0BB9DF80000182814D006DC012809D0B2
:10064000022809D004282BD12EE0412816D0612899
:1006500026D113E0802401E04FF48064012530703E
:10066000671D15E051466846FFF7C4FFC0B99DF805
:100670000000182814D1C8F8009015E00120BDE84A
:10068000F88F70195146FFF7B5FF48B96D1CADB230
:10069000BD42F6D3B178707881F0FF01884201D075
:1006A0004846ECE7C8F800400020E8E710B5002312
:1006B00006E000BF30F8024B21F813405B1C9BB2F0
:1006C0009342F7D310BD0088704700002DE9F05F1A
:1006D000A0F1006415468A468346B4F1005F52D209
:1006E000FFF720FEE70AC4F34906C6F58064A54279
:1006F00000D82C46DFF894904FF0006000EBC72044
:1007000080464FF480622149FFF7D0FF00204FF66A
:10071000FF7106E0331839F813208A4203D1401CD8
:1007200080B2A042F6D3A04225D24046FFF774FD26
:100730000020494607E000BF3AF810208319401C0A
:1007400021F8132080B2A042F6D3104940464FF45E
:10075000806200BF00F01CF8A54210D0281B0AEBF5
:10076000440AA3447F1C002685B24FF48064A5424E
:10077000C2D82C46C0E7224651465846EAE7BDE8B3
:10078000F05FFFF77BBDBDE8F09F00005400002044
:100790002DE9F04116460F460546002408E000BF4B
:1007A00037F814102846FFF77BFDAD1C641CA4B27B
:1007B000B442F5D3BDE8F081F8B50E4604462549AC
:1007C0002448083150F8240051F82410084340F020
:1007D00001000121FFF7B8FE1E4808389CB350F80D
:1007E00024000121FFF7A4FE18208DF8030019480A
:1007F0006946103830F81400ADF8000003208DF879
:100800000200154850F82400FFF7AAFD04208DF8D7
:100810000300104869460C3830F81400ADF80000A9
:100820000D48083050F82400FFF79AFD0A4D314674
:10083000083D55F8240000F073FA55F82400012112
:1008400000F05CFAF8BDFFE700680121FFF77CFECD
:10085000CAE70000401300080800002070470000AD
:100860003EB521A207CA8DE8070022A000F05EF97C
:100870002F4800F01FFB041E17DD2E4800F056F92C
:100880002D4800F053F921466846FFF72BFE2BA0B8
:1008900000F04CF9684600F049F92BA000F046F949
:1008A0002CA000F043F900203EBD601C09D0A01C24
:1008B0000DD0E41C11D02DA000F038F96FF003002A
:1008C0003EBD32A000F032F94FF0FF303EBD3FA0F8
:1008D00000F02CF96FF001003EBD43A000F026F9B6
:1008E0006FF002003EBD00002020202020202020AC
:1008F0002020000057616974696E6720666F72205E
:100900007468652066696C6520746F206265207369
:10091000656E74202E2E2E2028707265737320272A
:10092000612720746F2061626F7274290A0D0000C4
:100930005409002050130008540800200A0D2053C9
:10094000697A653A200000002042797465730D0AC7
:10095000000000002D2D2D2D2D2D2D2D2D2D2D2D7B
:100960002D2D2D2D2D2D2D0D0A0000000A0D466177
:10097000696C656420746F207265636569766520B3
:100980007468652066696C65210A0D000A0A0D54B9
:10099000686520696D6167652073697A6520697390
:1009A00020686967686572207468616E2074686584
:1009B00020616C6C6F776564207370616365206D76
:1009C000656D6F7279210A0D000000000A0A0D564C
:1009D0006572696669636174696F6E206661696CCE
:1009E0006564210A0D0000000D0A0A41626F7274ED
:1009F000656420627920757365722E0A0D0000000F
:100A000010B504462021054800F082F9002804D0E2
:100A10000248001D00882070012010BD00380140F0
:100A200010B5064C0146204600F0D4F9802120463E
:100A300000F06EF90028F9D010BD00000038014028
:100A400010B50BA000F072F8FFF7D9FC432801D0D5
:100A500015A009E04FF4FA2219A11F4800F026FB67
:100A600008B11EA000E028A0BDE8104000F05EB86C
:100A70000A0A0D53656C6563742052656365697677
:100A8000652046696C65202E2E2E202870726573B5
:100A90007320616E79206B657920746F2061626FBD
:100AA0007274290A0D0000000D0A0A41626F727407
:100AB000656420627920757365722E0A0D0000004E
:100AC00055706C6F61646564466C617368496D61F3
:100AD00067652E62696E0000003000080A0D4572DD
:100AE000726F72204F636375726564207768696CFA
:100AF00065205472616E736D697474696E67204607
:100B0000696C650A0D0000000A0D46696C65205489
:100B10007261736D69747465642053756363657382
:100B20007366756C6C79200A0D00000010B50446E0
:100B300003E000BFFFF774FF641C20780028F9D1A0
:100B400010BD00000CB500212648019100910268FB
:100B500042F4803202604FF4A063026802F4003273
:100B60000092019A521C0192009A12B9019A9A427B
:100B7000F3D10268920333D5012100911A490A6822
:100B800042F010020A600A6822F003020A600A6852
:100B900042F002020A604168416041684160416878
:100BA00041F480614160416821F47C1141604168F9
:100BB00041F4E8114160016841F080710160016811
:100BC0008901FCD5416821F003014160416841F091
:100BD000020141604168C1F381010229FAD10CBDD3
:100BE00000910CBD001002400020024070B50022B0
:100BF00004781346302C04D14478782C0AD0582C31
:100C000008D06FF02F05845C74B36B2C2ED04B2C66
:100C10002CD030E082780AB30224025D5AB1A2F1EE
:100C20004105052D0AD9A2F16106052E06D9113517
:100C3000092D07D913E001200B6011E0A2F1300665
:100C4000092E01D8303A04E0052D01D8373A00E0EA
:100C5000573A641C02EB03130B2CDED302E0002096
:100C60000B2C00D3002070BD0B6002E01AB198027B
:100C700007E0012015E06D2C01D04D2C03D112B1FD
:100C800018050860F5E7A4F13006092E08D803EB33
:100C9000830305EB4303521C23440B2AB3D3E1E740
:100CA00000200B2ADED270BD704700000F4810B53F
:100CB000016841F00101016041680D4A1140416045
:100CC00001680C4A11400160016821F48021016033
:100CD000416821F4FE0141604FF41F018160FFF77C
:100CE00031FF05494FF00060086010BD0010024060
:100CF0000000FFF8FFFFF6FE08ED00E00029818903
:100D000002D041F4005101E021F40051818170478B
:100D10000246002012880A4200D0012070470000DD
:100D200030B50446008A85B00D464CF6FF71084088
:100D3000E98801432182A1894EF6F3100140A88879
:100D40002A8910436A890A431043A081A08A4FF67A
:100D5000FF410840A9890143A1826846FFF700FCD2
:100D60001B48844201D1039800E00298A18909043C
:100D7000002900EBC00101EB0010296802DA4FEAFC
:100D8000410101E04FEA8101B0FBF1F06422B0FBC8
:100D9000F2F14FEA01114FEA11136FF018056B439E
:100DA00000EB8300A3891D044FF0320306D503EB4B
:100DB000C000B0FBF2F000F0070005E003EB00100C
:100DC000B0FBF2F000F00F000843208105B030BD09
:100DD00000380140C1F308018180704741F48071FF
:100DE00041F221024FEA41014FEA4000CB0501D513
:100DF00000F10100C30300D55040CB03F2D580B20F
:100E00007047FEE7FEB505460120002628706E708B
:100E1000FF20A870344603E02B19641CD870A4B2DC
:100E2000085D08B1FF2CF7D92819C670684611680B
:100E3000FFF758FB0020241DA1B26B4604E0401CC4
:100E40006A54491C80B289B21A5C002AF7D102E0C8
:100E50006E54491C89B28329FAD3FEBD70B54FF494
:100E60008066B34201D3344600E08024A34200D31D
:100E700023469DB2B44201D1022300E001230B704E
:100E80004A70D2438A700322EB1C04E010F8016B15
:100E90008E54521C92B29A42F8D3A54208D81A2214
:100EA00098B2E41C02E00A54401C80B2A042FAD37B
:100EB00070BD00002DE9F04F80460020ADF2244DBA
:100EC000714CDFF8C0B1CDF80804C4F804B0054691
:100ED00007464FF480194FF0FF3ACDF81004002672
:100EE0004A460DF20C416846FFF794FB88B1012891
:100EF00068D0002F00DD6D1C052D7CDD1820FFF76C
:100F00008FFD1820FFF78CFD00200DF2244DBDE869
:100F1000F08FDDF80C240025524507D042B19DF832
:100F20000100F1B288420BD01520A7E00620E9E7C6
:100F30000620FFF775FDDDF810040028CFD062E031
:100F400046B10DF103014046FFF71EF90027C4F832
:100F5000108078E09DF8030098B300210DF10300A4
:100F60004A4B02E05A54401C491C02780AB1FF293E
:100F7000F8DD00275F543946401C0DF2144302E0AF
:100F80005A54401C491C0278202A01D01029F7DB52
:100F90005F540DF581611846FFF728FEDDF808045F
:100FA000B0F5002F07DB1820FFF73AFD1820FFF7F8
:100FB00037FD5046A9E7FFF769F9C4E902703846E2
:100FC00011E01DE050E000BFFFF7ACF9D4E90102E9
:100FD000618801FB0200FFF71FF92070FFF74EF94F
:100FE000A068401CA060E168884202D220780428F2
:100FF000EAD0062000E040E0FFF712FD43202EE09B
:101000000620FFF70DFDDDF808047EE7FFF78AF9FB
:10101000206901686068FFF75DF9FFF72FF96068E4
:10102000216902680B689A4208D01820FFF7F8FC83
:101030001820FFF7F5FC6FF0010066E7091D001DA1
:1010400021613F1D6060DDF80C04874206DADDF89F
:101050000824616802EB0B008142D7D30620FFF71A
:10106000DFFC761C01273BE71820FFF7D9FC18208E
:10107000FFF7D6FC6FF0020047E74320FFF7D0FCF4
:101080002EE700000030000818000020540800205F
:1010900070B50D460646002404E0305DFFF7C0FC45
:1010A000641CA4B2AC42F8D370BD00002DE9F74F28
:1010B000ADF5A26D8146002420460DF581620B5CE2
:1010C0001354401CC0B2FF28F9D301270DF5A362C9
:1010D0000DF581616846FFF795FE83216846FFF7AD
:1010E000D7FF6D4642F2107A04E083216846FFF78D
:1010F000CFFF67B18021E81CFFF778F80646000AA9
:10110000FFF78EFCF0B2FFF78BFCA84606E08021CB
:1011100008F10300FFF75EF8FFF782FC51460DF57A
:10112000A160FFF767FA18B1641C0A2CDDD3B9E09F
:101130009DF808050628F8D10A2C6DD2CDF80C953B
:101140004FF0010BDDF8185549E000BF0BF0FF022E
:101150002B466946DDF80C05FFF780FE00208DF870
:10116000080506464FF48064A54200D28024E11CA5
:101170006846FFF78DFF214608F1030047B1FFF7EE
:1011800035F88146000AFFF74BFC09F0FF0001E04B
:10119000FFF720F8FFF744FC46490DF5A160FFF783
:1011A00029FA18B99DF80805062807D0761C0A2EDA
:1011B000D8D3F0B20DF21C5DBDE8F08FA54221D965
:1011C000DDF80C052D1B2044CDF80C05BBF5FA7F8E
:1011D00016D00BF101001FFA80FB0A2EE9D2002D78
:1011E000B4D100258DF808552C4656460420FFF74B
:1011F00017FC31460DF5A160FFF7FCF928B108E0B6
:10120000FF20D7E70A2ED4D2EBE79DF80805062881
:1012100003D0641C0A2CE9D344E00A2C42D20120FA
:101220008DF800008DF80150FF2000248DF8020099
:101230008DF80855032047463D54401CC0B2832812
:10124000FAD383216846FFF723FF8021F81CFEF7BD
:10125000CDFF0546000AFFF7E3FBE8B2FFF7E0FB2E
:1012600031460DF5A160FFF7C5F918B1641C0A2CD1
:10127000E7D317E09DF808050628F8D101250A2CC8
:1012800010D20420FFF7CCFB31460DF5A160FFF72B
:10129000B1F918B99DF80805062801D0641C1DB1E4
:1012A0000A2C04D3E0B285E70A2CEAD3FAE700203F
:1012B00080E70000A086010002E008C8121F08C1F4
:1012C000002AFAD170477047002001E001C1121FC7
:1012D000002AFBD17047FFF7EFF84DF6DD544FF6CB
:1012E000FF75FFF799F8A0F55D41DD39A0421BD0ED
:1012F00008DCB0B1A0F54C40CC38F2D12846FFF75D
:1013000091F8EEE7A1F58851113903D0A1F5885184
:101310001139E6D1FFF7A4FA0028E2D10020FFF747
:1013200081F8FFF78DF8DCE7FFF78AFBF6E70000AE
:101330000002040000040800004000000000020059
:10134000040000000400000004000000040000008D
:101350000A0A0D2050726F6772616D6D696E6720A9
:10136000436F6D706C65746564205375636365735A
:101370007366756C6C79210A0D2D2D2D2D2D2D2D5B
:101380002D2D2D2D2D2D2D2D2D2D2D2D2D2D2D2D8D
:101390002D2D2D2D2D2D2D2D2D0D0A204E616D6500
:1013A0003A200000C4130008000000205400000090
:1013B000B81200081814000854000020041500009A
:1013C000C8120008003801400044004000080140F5
:1013D0000008014000080140000801400400000826
:1013E00000300008000000000000000000000000C5
:1013F00000000000000000000000000000000000ED
:1014000000000000020406080000000001020304BE
:081410000102030406070809AC
:0400000508000131BD
:00000001FF
