:020000040800F2
:10000000381000204501000801040008AF03000873
:10001000FF0300088D010008DD0900080000000052
:10002000000000000000000000000000DD070008E4
:100030008F0100080000000069040008A9080008FA
:100040005F0100085F0100085F0100085F01000810
:100050005F0100085F0100085F0100085F01000800
:100060005F0100085F0100085F0100085F010008F0
:100070005F0100085F0100085F0100085F010008E0
:100080005F0100085F0100085F0100085F010008D0
:100090005F0100085F0100085F0100085F010008C0
:1000A0005F0100085F0100085F0100085F010008B0
:1000B0005F0100085F0100085F0100085F010008A0
:1000C0005F0100085F0100085F0100085F01000890
:1000D0005F0100085F0100085F0100085F01000880
:1000E0005F0100085F0100085F0100085F01000870
:1000F0005F0100085F0100085F0100085F01000860
:100100005F0100085F0100085F0100085F0100084F
:100110005F0100085F0100085F0100085F0100083F
:100120005F0100085F0100085F0100085F0100082F
:10013000DFF80CD000F018F800480047FD0900086F
:10014000381000200648804706480047FEE7FEE7D3
:10015000FEE7FEE7FEE7FEE7FEE7FEE7FEE7FEE777
:10016000AD08000831010008064C074D06E0E068C4
:1001700040F0010394E8070098471034AC42F6D3EE
:10018000FFF7DAFF980A0008B80A0008FEE7704790
:1001900030B51A498379026853B30B6893430B60F7
:1001A0000A1D13680468A343136002790A441368A4
:1001B000046823431360114A083213680468A34398
:1001C0001360131D1C680568AC431C604479102C37
:1001D00005D021440A68006802430A6030BD1168F6
:1001E000046821431160196800680143196030BD3B
:1001F0000079084401689143016030BD000401406A
:1002000070B505464FF43026304600F059F8042802
:1002100011D1094C206940F002002061656120691C
:1002200040F040002061304600F04AF8216941F674
:10023000FD721140216170BD002002400849042078
:10024000CA68D20701D001207047CA68520701D599
:1002500002207047C968C906FBD50320704700001B
:10026000002002400248016941F0800101617047AD
:1002700000200240F0B506464FF400570D463846C0
:1002800000F01EF804280CD1064C206940F0010053
:1002900020613580384600F013F82169BA1E1140FC
:1002A0002161F0BD0020024003480249416003493A
:1002B000416070472301674500200240AB89EFCDC4
:1002C00000B50346FFF7BAFF03E000BFFFF7B6FF34
:1002D0005B1E012803D0002B00D1052000BD002BA0
:1002E000F4D1FAE710B58A0721F003040649130F89
:1002F00021440F228C689A4094438C608A6898400D
:1003000002438A6010BD000000000140F0B5CA78C9
:10031000002502F00F03D20601D58A7813430C782A
:100320004FF00F0E0122ECB1D0F800400F8802FA16
:1003300005F63740B74211D14FEA850C0EFA0CF79B
:1003400024EA070703FA0CF43C43CF78282F02D0A5
:10035000482F02D002E0466100E006616D1C082DC6
:10036000E4D304600C88FF2C1ED944685FF00006BB
:1003700006F1080702FA07F50F882F40AF420FD1A8
:100380004FEA860C0EFA0CF7BC4303FA0CF73C4319
:10039000CF78282F00D14561CF78482F00D1056153
:1003A000761C082EE4D34460F0BD01617047FEE77F
:1003B00001460122014800F0BBB8000000280008F7
:1003C00001B501226946024800F0C0F808BD0000EE
:1003D000002800081FB54FF4E13000900020ADF870
:1003E0000400ADF80600ADF80800ADF80C000C20D4
:1003F000ADF80A006946002000F01EF91FBDFEE7B7
:1004000070470000F0B50F21C478027801234FF047
:10041000E026DCB1124C2468457804F4E064C4F5AD
:10042000E064240AC4F10407E1408478BD400C4034
:100430002C4321010B4C1155007800F01F018B401B
:10044000400906EB8000C0F80031F0BD02F01F004B
:100450008340500906EB8000C0F88031F0BD0000F9
:100460000CED00E000E400E070470000044A0029C1
:10047000D16901D0014300E08143D16170470000A0
:1004800000100240044A0029916901D0014300E0B4
:1004900081439161704700000010024030B520494F
:1004A0004A6812F00C031F4A03D0042B01D0082B1A
:1004B00022D002604A680F231B4C03EA1212A35C8D
:1004C0000268DA4042604B68072505EA1323E35CC3
:1004D00022FA03F383604B6805EAD323E35C22FA34
:1004E00003F2C2604968032303EA9131231F595C78
:1004F000B2FBF1F1016130BD4A684B6802F4701241
:100500004FF0020413F4803F04EB924202D04B6898
:100510009B0301D5054B00E0024B5A43C9E700009D
:100520000010024000127A000400002000093D0083
:1005300010B5002306E000BF30F8024B21F813404D
:100540005B1C9BB29342F7D310BD00002DE9F05F16
:10055000A0F1006415468A468346B4F1005F52D28A
:10056000FFF7A2FEE70AC4F34906C6F58064A54278
:1005700000D82C46DFF894904FF0006000EBC720C5
:1005800080464FF480622149FFF7D2FF00204FF6EA
:10059000FF7106E0331839F813208A4203D1401C5A
:1005A00080B2A042F6D3A04225D24046FFF728FEF3
:1005B0000020494607E000BF3AF810208319401C8C
:1005C00021F8132080B2A042F6D3104940464FF4E0
:1005D000806200BF00F01CF8A54210D0281B0AEB77
:1005E000440AA3447F1C002685B24FF48064A542D0
:1005F000C2D82C46C0E7224651465846EAE7BDE835
:10060000F05FFFF72FBEBDE8F09F0000380000202C
:100610002DE9F04116460F460546002408E000BFCC
:1006200037F814102846FFF725FEAD1C641CA4B251
:10063000B442F5D3BDE8F081F8B50E46044625492D
:100640002448083150F8240051F82410084340F0A1
:1006500001000121FFF716FF1E4808389CB350F82F
:1006600024000121FFF702FF18208DF8030019482C
:100670006946183830F81400ADF8000003208DF8F2
:100680000200154850F82400FFF740FE04208DF8C2
:10069000030010486946143830F81400ADF8000023
:1006A0000D48083050F82400FFF730FE0A4D31465F
:1006B000083D55F8240000F033F955F824000121D5
:1006C00000F01CF9F8BDFFE700680121FFF7DAFE32
:1006D000CAE70000880A000828000020F8B5044690
:1006E0000F48012150F82400FFF7CCFE0C4D0D4EB1
:1006F000123D694635F81400ADF8000010208DF861
:10070000030003208DF8020056F82400FFF7FEFDD9
:1007100035F8141056F82400FFF747FEF8BD000026
:10072000780A0008180000200349044A31F8101024
:1007300052F8200041617047660A00081800002046
:100740007FB5044623480D46012150F8240040F0AF
:100750000100FFF797FE28208DF80F001D4803A920
:10076000103830F81400ADF80C001B4850F8240085
:10077000FFF7CCFD012D2CD116480A3810F81410C3
:10078000801E10F81400FFF7ADFD12480E3830F847
:100790001400009000208DF804000CB10C2000E043
:1007A00008208DF8050001258DF806506846FFF7F2
:1007B000EFFC0848083810F814008DF808000F20E6
:1007C0008DF809008DF80A008DF80B5002A8FFF78C
:1007D00019FE7FBD6C0A000814000020704700005D
:1007E00010B5064C0146204600F0F4F88021204662
:1007F00000F08EF80028F9D010BD0000003801404C
:100800000CB50021264801910091026842F4803223
:1008100002604FF4A063026802F400320092019A71
:10082000521C0192009A12B9019A9A42F3D10268BD
:10083000920333D5012100911A490A6842F010024F
:100840000A600A6822F003020A600A6842F00202A3
:100850000A604168416041684160416841F48061DB
:100860004160416821F47C114160416841F4E81124
:100870004160016841F08071016001688901FCD527
:10088000416821F003014160416841F0020141608B
:100890004168C1F381010229FAD10CBD00910CBD60
:1008A0000010024000200240704700000F4810B5C1
:1008B000016841F00101016041680D4A1140416049
:1008C00001680C4A11400160016821F48021016037
:1008D000416821F4FE0141604FF41F018160FFF780
:1008E0008FFF05494FF00060086010BD0010024006
:1008F0000000FFF8FFFFF6FE08ED00E00029818907
:1009000002D041F4005101E021F40051818170478F
:100910000246002012880A4200D0012070470000E1
:1009200030B50446008A85B00D464CF6FF7108408C
:10093000E98801432182A1894EF6F3100140A8887D
:100940002A8910436A890A431043A081A08A4FF67E
:10095000FF410840A9890143A1826846FFF79EFD37
:100960001B48844201D1039800E00298A189090440
:10097000002900EBC00101EB0010296802DA4FEA00
:10098000410101E04FEA8101B0FBF1F06422B0FBCC
:10099000F2F14FEA01114FEA11136FF018056B43A2
:1009A00000EB8300A3891D044FF0320306D503EB4F
:1009B000C000B0FBF2F000F0070005E003EB001010
:1009C000B0FBF2F000F00F000843208105B030BD0D
:1009D00000380140C1F3080181807047FEE702E062
:1009E00008C8121F08C1002AFAD1704770470020BA
:1009F00001E001C1121F002AFBD1704708B5002099
:100A0000ADF800000446FFF74FFC0120FFF766FE3B
:100A100000210846FFF794FE4AF6AA252846FFF76C
:100A2000CFFC42F21070641C8442FCDBFFF7D2FC66
:100A30006846FFF7BDFCBDF80000000AFFF7D0FED6
:100A4000BDF80000C0B2FFF7CBFEBDF80000A84221
:100A500002D10120FFF768FEFEE70000010001005F
:100A6000000000000600200020000000040000003C
:100A7000000204000004080008000000400000001C
:100A8000004000000000020004000000040000001C
:100A90000400000004000000B80A00080000002064
:100AA00038000000DE090008F00A000838000020C5
:100AB00000100000EE090008020406080000000013
:100AC00001020304010203040607080900080140AB
:100AD000000C014000180140003801400044004073
:100AE00000080140000801400008014000080140E2
:0400000508000131BD
:00000001FF
