:020000040800F2
:1000000048150020650100080F09000811050008C7
:100010000D090008110200088B1100080000000003
:10002000000000000000000000000000390C000883
:100030004D020008000000001109000831100008FE
:100040007F0100087F0100087F0100087F01000890
:100050007F0100087F0100087F0100087F01000880
:100060007F0100087F0100087F0100087F01000870
:100070007F0100087F0100087F0100087F01000860
:100080007F0100087F0100087F0100087F01000850
:100090007F0100087F0100087F0100087F01000840
:1000A0007F0100087F0100087F0100087F01000830
:1000B0007F0100087F0100087F0100087F01000820
:1000C0007F0100087F0100087F0100087F01000810
:1000D0007F0100087F0100087F0100087F01000800
:1000E0007F0100087F0100087F0100087F010008F0
:1000F0007F0100087F0100087F0100087F010008E0
:100100007F0100087F0100087F0100087F010008CF
:100110007F0100087F0100087F0100087F010008BF
:100120007F0100087F0100087F0100087F010008AF
:10013000DFF80CD000F05AF8004800473F160008DE
:1001400048150020EFF30980704780F30988704755
:10015000EFF30880704780F30888704740BA704713
:10016000C0BA70470648804706480047FEE7FEE7EA
:10017000FEE7FEE7FEE7FEE7FEE7FEE7FEE7FEE757
:10018000351000083101000840EA01039B0703D045
:1001900009E008C9121F08C0042AFAD203E011F8C6
:1001A000013B00F8013B521EF9D27047D2B201E088
:1001B00000F8012B491EFBD270470022F6E710B56C
:1001C00013460A4604461946FFF7F0FF204610BDC5
:1001D00010B5002200E0521C835C8C5CA34201D16C
:1001E000002BF8D1D8B2E1B2401A10BD064C074D31
:1001F00006E0E06840F0010394E8070098471034F7
:10020000AC42F6D3FFF798FF58170008781700089C
:10021000FEE70022014402E010F8013B1A44884244
:10022000FAD3D0B2704730B504460020651803E019
:1002300014F8011B00F096FFAC42F9D3002100F046
:1002400091FFBDE83040002100F08CBF70470000F6
:10025000F1B500240425009800F05CF806460C4F28
:1002600009E000F0A3F807EBC42000F013F80546FE
:1002700000F048F8641CB44201D2042DF1D0B4421D
:1002800001D1042D01D00020F8BD0120F8BD0000EF
:100290000030000870B505464FF43026304600F0B7
:1002A00091F8042811D1094C206940F00200206126
:1002B0006561206940F040002061304600F082F81E
:1002C000216941F6FD721140216170BD002002409C
:1002D00008490420CA68D20701D001207047CA68C3
:1002E000520701D502207047C968C906FBD5032013
:1002F00070470000002002400148006A704700007B
:10030000002002400248016941F08001016170470C
:100310000020024001B50098410503D0012101EB06
:10032000D02008BDC00A08BDF0B506464FF40057FE
:100330000D46384600F046F804280CD1064C2069DA
:1003400040F0010020613580384600F03BF821691B
:10035000BA1E11402161F0BD002002402DE9F84194
:10036000064600204FF4005700900D46384600F036
:1003700029F8042816D10C4C206940F001002061B6
:100380003580B846384600F01DF8BF1E042806D157
:10039000B61C280C00963080404600F013F8216906
:1003A00039402161BDE8F88100200240034802493C
:1003B00041600349416070472301674500200240C6
:1003C000AB89EFCD00B50346FFF782FF02E0FFF7F0
:1003D0007FFF5B1E012803D0002B00D1052000BD4C
:1003E000002BF4D1FAE7F0B5CC78002204F00F032B
:1003F000E40601D58C7823430C784FF00F0C4FF0B6
:10040000010EDCB105680E880EFA02F42640A64201
:1004100010D196000CFA06F725EA070703FA06F54D
:10042000CE783D43282E02D0482E02D002E044610F
:1004300000E00461521C082AE5D305600A88FF2AFF
:100440001CD94468002202F108060EFA06F50E884F
:100450002E40AE420ED196000CFA06F7BC4303FACA
:1004600006F7CE783C43282E00D14561CE78482E41
:1004700000D10561521C082AE5D34460F0BD00009C
:1004800070B50546002400F037F80A2802D0082885
:100490000BD004E0291911F8011C0D2912D0802C71
:1004A00007D30CA000F00EFDECE7002CEBD0641E8F
:1004B000E9E7A0F120015E2901D90D28E3D12855F3
:1004C000641CE0E70BA000F0FDFC0020291901F8F6
:1004D000010C70BD436F6D6D616E64207374726941
:1004E0006E672073697A65206F766572666C6F77C8
:1004F0000D0A00000A0D000008B500208DF800006C
:10050000684600F067FC0028FAD09DF8000008BD9E
:10051000FEE70000014800F0C7BA0000002800080C
:1005200001B5FFF743FF01226946034800F0BEFA18
:10053000FFF7E8FE08BD00000028000870B50D4D6B
:1005400028680D490840B0F1005F04D0BDE8704054
:100550000AA000F0B7BC10A000F0B4FC6868144C0E
:100560002061E0602868FFF7F6FDE068BDE87040B4
:1005700000470000003000080000FE2F4A756D7033
:1005800020746F20757365722061707020657272BF
:100590006F722E0D0A0A00004A756D7020746F206C
:1005A00075736572206170702E0D0A0A00000000DC
:1005B000200000201FB54FF4E13000900020ADF87E
:1005C0000400ADF80600ADF80800ADF80C000C20F2
:1005D000ADF80A006946002000F0DCFA1FBD0000FB
:1005E000F0B500220D4B144615464FF00A0CB1FB36
:1005F000F3F603FB161106F130078754521CB3FBC8
:10060000FCF3861816F8016C302E00D124B1641C5E
:100610006D1C0A2DEBD3F0BD0022F9E700CA9A3B0E
:10062000A0B080216846FFF7C8FD3048304C012556
:100630000068A0F10060000B20603E2804D205FA9B
:1006400000F0401EC04301E04FF000406060FFF743
:1006500053FE6168814301D0A56001E00020A060E5
:10066000244D25A000F02EFC31A000F02BFC40A072
:1006700000F028FC4EA000F025FCA06810B15CA0A2
:1006800000F020FC6AA000F01DFC79A000F01AFC2C
:100690006846FFF7F5FE78A16846FFF799FD68B157
:1006A00077A16846FFF794FDC8B177A16846FFF7C8
:1006B0008FFD88B1764800F005FCD2E775A000F008
:1006C00001FC00F0BBFA0028CBD1FFF76FFE2846F3
:1006D000FFF7E0FDFFF716FEFFF730FFC1E77DA053
:1006E00000F0F0FB00F096FBBBE7000018000020D4
:1006F00020000020002800080D0A496E2D4170706E
:100700006C69636174696F6E2050726F6772616D9E
:100710006D696E67204170706C69636174696F6E9A
:10072000285620332E332E3029200D0A0A000000CF
:10073000446F776E6C6F616420496D61676520540A
:100740006F207468652053544D3332463130782021
:10075000496E7465726E616C20466C617368202D01
:100760002D2D2D3E207570646174650D0A0A000000
:1007700055706C6F616420496D6167652046726FCA
:100780006D207468652053544D33324631307820E3
:10079000496E7465726E616C20466C617368202DC1
:1007A0002D2D2D3E2075706C6F61640D0A0A0000BE
:1007B0004578656375746520546865204E657720BB
:1007C00050726F6772616D202D2D2D2D2D2D2D2DC9
:1007D0002D2D2D2D2D2D2D2D2D2D2D2D2D2D2D2D49
:1007E0002D2D2D3E2072756E6170700D0A0A00006D
:1007F00044697361626C65207468652077726974FE
:10080000652070726F74656374696F6E202D2D2D75
:100810002D2D2D2D2D2D2D2D2D2D2D2D2D2D2D2D08
:100820002D3E20636D645F64697377700D0A0A0062
:100830003D3D3D3D3D3D3D3D3D3D3D3D3D3D3D3DE8
:100840003D3D3D3D3D3D3D3D3D3D3D3D3D3D3D3DD8
:100850003D3D3D3D3D3D3D3D3D3D3D3D3D3D3D3DC8
:100860003D3D3D3D3D3D3D3D3D3D0D0A0A00000005
:10087000636D643E00000000757064617465000083
:1008800075706C6F6164000072756E61707000004D
:10089000101700080A0A57616974696E6720666F4D
:1008A00072207468652066696C6520746F206265CB
:1008B0002073656E74202E2E2E202870726573733F
:1008C0002027612720746F2061626F7274290D0ADE
:1008D000000000000A0A0D53656C656374205265C0
:1008E00063656976652046696C65202E2E2E20286A
:1008F000707265737320616E79206B657920746FF7
:100900002061626F7274290A0D000000FEE77047D3
:1009100070470000044A0029D16901D0014300E07A
:100920008143D1617047000000100240044A002951
:10093000916901D0014300E081439161704700005B
:100940000010024030B5204A5168204B11F00C01D4
:1009500003D0042901D0082901D0036012E05168B6
:10096000536801F470114FF0020413F4803F04EB5C
:10097000914102D053689B0301D5154B00E0134B06
:100980005943016051680F2303EA1111114B5C5C5C
:100990000168E14041605468072505EA14241C5DA4
:1009A00021FA04F48460546805EAD4241B5DD9401C
:1009B000C1605268032303EA9232064B1B1F9A5C04
:1009C000B1FBF2F1016130BD0010024000127A006B
:1009D00000093D003800002070B50C46054604E0D3
:1009E000284600F0F7F9012804D0641EF8D24FF031
:1009F000FF3070BD002070BD2DE9F84F8846002102
:100A00000546C8F80010924611466846FFF7E4FF15
:100A10004FF0FF39B0BB9DF80010182914D006DC48
:100A2000012909D0022909D004292BD12EE041291E
:100A300016D0612926D113E0802601E04FF48066AC
:100A400001242970771D15E051466846FFF7C4FF61
:100A5000C0B99DF80000182814D1C8F8009015E01E
:100A60000120BDE8F88F28195146FFF7B5FF48B9B6
:100A7000641CA4B2BC42F6D3A978687881F0FF0167
:100A8000884201D04846ECE7C8F800600020E8E75B
:100A900010B5002305E030F8024B21F813405B1C31
:100AA0009BB29342F7D310BD008870472DE9F05FE9
:100AB000A0F10064154688468246B4F1005F50D22A
:100AC000FFF774FCE70AC4F34906C6F58064A54243
:100AD00000D82C46DFF890B04FF0006000EBC72044
:100AE00081464FF480622049FFF7D2FF00204FF685
:100AF000FF7206E033183BF81310914203D1401CFB
:100B000080B2A042F6D3A04223D24846FFF7C2FBF0
:100B100000205A4606E038F810108319401C22F8CD
:100B2000131080B2A042F6D348464FF480620E49BB
:100B300000F01CF8A54210D0281B08EB4408A24482
:100B40007F1C002685B24FF48064A542C4D82C4691
:100B5000C2E7224641465046EAE7BDE8F05FFFF7AC
:100B6000D1BBBDE8F09F0000480000202DE9F04116
:100B700016460F460546002407E037F814102846AD
:100B8000FFF7D2FBAD1C641CA4B2B442F5D3BDE8A0
:100B9000F0810000F8B50D46044625492448083187
:100BA00050F8240051F82410084340F001000121BE
:100BB000FFF7BCFE1E4808389CB350F82400012102
:100BC000FFF7A8FE18208DF8030019486946103871
:100BD00030F81400ADF8000003208DF8020015482D
:100BE00050F82400FFF7FFFB04208DF803001048A5
:100BF00069460C3830F81400ADF800000D48083094
:100C000050F82400FFF7EFFB0A4E2946083E56F83D
:100C1000240000F049FA56F82400012100F032FACD
:100C2000F8BDFFE700680121FFF780FECAE700007A
:100C3000B416000808000020704700003EB50020F0
:100C4000009001900290204800F0F8FA041E1DDD8B
:100C50001EA000F037F927A000F034F92FA000F013
:100C600031F9304800F02EF921466846FFF7B8FC0C
:100C70002DA000F027F9684600F024F92DA000F01F
:100C800021F91CA000F01EF900203EBD601C09D017
:100C9000A01C0DD0E41C11D029A000F013F96FF0B6
:100CA00003003EBD2EA000F00DF94FF0FF303EBD19
:100CB0003BA000F007F96FF001003EBD3FA000F03F
:100CC00001F96FF002003EBD480900200D0A507284
:100CD0006F6772616D6D696E6720436F6D706C65D3
:100CE000746564205375636365737366756C6C79A2
:100CF000210D0A002D2D2D2D2D2D2D2D2D2D2D2DA0
:100D00002D2D2D2D2D2D2D2D2D2D2D2D2D2D2D2D13
:100D10002D2D2D2D2D2D2D2D0D0A00004E616D65D3
:100D20003A200000480800200D0A53697A653A20ED
:100D30000000000042797465732E0D0A0000000067
:100D40000A0D4661696C656420746F207265636585
:100D5000697665207468652066696C65210A0D00F6
:100D60000A0A0D54686520696D6167652073697AA8
:100D70006520697320686967686572207468616EB0
:100D80002074686520616C6C6F7765642073706196
:100D90006365206D656D6F7279210A0D000000009A
:100DA0000A0A0D566572696669636174696F6E201F
:100DB0006661696C6564210A0D0000000D0A0A4134
:100DC000626F7274656420627920757365722E0A91
:100DD0000D00000010B504462021054800F05CF924
:100DE000002804D00248001D00882070012010BD9A
:100DF0000038014010B5064C0146204600F0AEF91F
:100E00008021204600F048F90028F9D010BD0000EC
:100E10000038014010B5FFF76FFB432801D008A050
:100E200009E04FF4FA220CA1114800F0EFFA08B1E2
:100E300010A000E01AA0BDE8104000F043B8000088
:100E40000D0A0A41626F72746564206279207573BD
:100E500065722E0A0D00000055706C6F6164656448
:100E6000466C617368496D6167652E62696E00004A
:100E7000003000080A0D4572726F72204F6363756F
:100E8000726564207768696C65205472616E736D59
:100E9000697474696E672046696C650A0D0000000C
:100EA0000A0D46696C6520547261736D69747465CE
:100EB00064205375636365737366756C6C79200A7F
:100EC0000D00000010B5044602E0FFF793FF641C1C
:100ED00020780028F9D110BD0CB5002226480092D8
:100EE0000192016841F4803101604FF4A063016810
:100EF00001F4003101910099491C0091019911B947
:100F000000999942F3D10168890333D501210191F8
:100F10001A490A6842F010020A600A6822F00302C5
:100F20000A600A6842F002020A6041684160416852
:100F30004160416841F480614160416821F47C1165
:100F40004160416841F4E8114160016841F08071FD
:100F5000016001688901FCD5416821F0030141600D
:100F6000416841F0020141604168C1F381010229F9
:100F7000FAD10CBD01920CBD0010024000200240CD
:100F800070B5002302781C46302A04D14278782AB2
:100F90000AD0582A08D06FF02F05C25CAAB16B2A7C
:100FA0002AD04B2A28D02CE0827802B30223C25CDC
:100FB0005AB1A2F14105052D09D9A2F16106052E0C
:100FC00005D91135092D06D930E00C6017E0A2F1E2
:100FD0003006092E01D8303A04E0052D01D8373A01
:100FE00000E0573A5B1C02EB04140B2BDFD301E04B
:100FF0000B2B00D3002070BD1BB1A00207E0012025
:10100000F6E76D2A01D04D2A03D113B120050860FF
:10101000F5E7A2F13006092E08D804EB840405EBAD
:1010200044045B1C14440B2BB7D3E3E70020DFE739
:10103000704700000F4810B5016841F001010160E0
:1010400041680D4A1140416001680C4A114001603D
:10105000016821F480210160416821F4FE014160B2
:101060004FF41F018160FFF737FF05494FF0006023
:10107000086010BD001002400000FFF8FFFFF6FE00
:1010800008ED00E00029818902D041F4005101E01F
:1010900021F40051818170470246002012880A42E3
:1010A00000D001207047000030B50446008A85B0AA
:1010B0000D464CF6FF710840E98801432182A08962
:1010C0004EF6F3110840A9882A8911436A89024320
:1010D0001143A181A08A4FF6FF410840A98901432D
:1010E000A1826846FFF72EFC1B48844201D1039879
:1010F00000E00298A1890904002900EBC00101EB7E
:101100000010296802DA4FEA410101E04FEA81014B
:10111000B0FBF1F06422B0FBF2F14FEA01114FEAAB
:1011200011136FF018056B4300EB8300A3891D04B6
:101130004FF0320306D503EBC000B0FBF2F000F035
:10114000070005E003EB0010B0FBF2F000F00F0029
:101150000843208105B030BD00380140C1F30801CB
:101160008180704741F4807141F221024FEA4101D0
:101170004FEA4000CB0501D500F10100C30300D5C3
:101180005040CB03F2D580B27047FEE7FEB505466E
:101190000120002628706E70FF20A870344603E0FE
:1011A0002B19641CD870A4B2085D08B1FF2CF7D9C4
:1011B0002819C67068461168FFF712FA0021241D2D
:1011C000A0B26B4604E0491C2A54401C89B280B28C
:1011D0005A5C002AF7D102E02E54401C80B28328CA
:1011E000FAD3FEBD70B54FF48066B34201D33446E6
:1011F00000E08024A34200D323469DB2B44201D133
:10120000022300E001230B704A70D2438A7003224C
:10121000EB1C04E010F8016B8E54521C92B29A42FF
:10122000F8D3A54208D81A2298B2E41C02E00A5466
:10123000401C80B2A042FAD370BD00002DE9F04FEF
:1012400080460020ADF2244D674EDFF898A1CDF81E
:101250000804C6F800A005460746EB46CDF8200472
:101260000024A1464FF400120DF21C416846FFF71E
:10127000C3FB88B1012867D0002F00DD6D1C052D50
:101280007DDD1820FFF7B6FD1820FFF7B3FD002025
:101290000DF2244DBDE8F08FDDF81C240025B2F1DD
:1012A000FF3F07D042B19DF80100E1B2884207D06C
:1012B000152088E00620E8E70620FFF79BFD88E080
:1012C00044B10BF103014046FEF75EFF0027C6F86C
:1012D00004805DE09DF80300A8B300200BF103013A
:1012E000424F02E03A54491C401C0A780AB1FF28D8
:1012F000F8DD00233B541846491C0DF20C4702E070
:101300003A54491C401C0A78202A01D01028F7DBE7
:101310003B540DF581613846FFF732FEDDF80804D5
:10132000B0F5002F08DB1820FFF764FD1820FFF749
:1013300061FD4FF0FF30ABE7FEF78AFF0620FFF7B5
:1013400059FD432030E000E033E00620FFF752FD76
:1013500044E0FFF72BF8706801683068FEF7FEFF85
:10136000FEF7D0FF3068716802680B689A420AD0B5
:101370001820FFF73FFD1820FFF73CFD00E021E0BB
:101380006FF0010084E7001D091D3F1DC6E9000143
:10139000DDF81C04874206DADDF80824316802EB28
:1013A0000A008142D5D30620FFF724FD641C0127E3
:1013B0000BE01820FFF71EFD1820FFF71BFD6FF054
:1013C000020065E74320FFF715FDB9F1000F3FF478
:1013D00049AFDDF8200400283FF442AFDDF80804EF
:1013E00056E70000003000081800002048080020E0
:1013F00070B50D460646002404E0305DFFF7FAFCA8
:10140000641CA4B2AC42F8D370BD00002DE9F74FC4
:101410000024ADF5A26D8046264620460DF581627A
:101420000B5C1354401CC0B2FF28F9D34FF0010AE3
:101430000DF5A3620DF581616846FFF7A7FE8321D4
:101440006846FFF7D5FFBAF1000F4FF080010DF1AC
:10145000030007D0FEF7E7FE0546000AFFF7CAFCC7
:10146000E8B201E0FEF7D5FEFFF7C4FC42F21071CE
:101470000DF5A160FFF7B0FA10B1641C66B103E08E
:101480009DF808050628F9D10A2C07D247464FF0E7
:101490000108DDF8185552E00A2CD0D3B7E008F067
:1014A000FF022B4669463846FFF79CFE4FF0000BC3
:1014B0008DF808B55E464FF48064A54200D28024C2
:1014C000E11C6846FFF794FFBAF1000F21460DF1C9
:1014D000030008D0FEF7A7FE8146000AFFF78AFC4A
:1014E00009F0FF0001E0FEF794FEFFF783FC4B4993
:1014F0000DF5A160FFF770FA18B99DF808050628E8
:1015000004D0761CBBF1000F16D011E0A542274491
:101510000DD92D1BB8F5FA7F04D008F101001FFA90
:1015200080F805E0FF200DF21C5DBDE8F08F00257E
:101530000A2E04D3F0B2F6E70A2EBCD3FAE7002D48
:10154000ADD100273E468DF808753C4642F2107535
:101550000420FFF74FFC29460DF5A160FFF73CFA88
:1015600018B99DF80805062801D0641C7FB30A2C21
:101570004DD201208DF8000000278DF80160FF207A
:101580008DF802008DF808653C46032069460E542C
:10159000401CC0B28328FAD388462E468321684671
:1015A000FFF726FF802108F10300FEF73CFE054609
:1015B000000AFFF71FFCE8B2FFF71CFC31460DF5EF
:1015C000A160FFF709FA30B1641CAFB108E0FFE792
:1015D0000A2CBDD31BE09DF808050628F5D101278C
:1015E0000A2C14D20420FFF705FC31460DF5A1604A
:1015F000FFF7F2F918B106E00A2CCFD307E09DF807
:101600000805062801D0641C1FB10A2C04D3E0B2DF
:1016100089E70A2CE6D3FAE7002084E7A0860100D8
:1016200002E008C8121F08C1002AFAD170477047AB
:10163000002001E001C1121F002AFBD17047FEF714
:10164000B9FF4DF6DD544FF4FA254FF6FF76FEF75D
:1016500061FFA0F55D41DD39A04220D00BDCA8B1CF
:10166000A0F54C40CC38F2D12846FEF7F1FD3046CB
:10167000FEF756FFEBE7A1F58851113909D0A1F526
:1016800088511139E3D1FEF7CBFFE0E7FEF756FFB3
:10169000DDE7FFF7D3FA0028D9D10020E8E7FFF70C
:1016A000B9FBFAE700020400000408000040000053
:1016B000000002000400000004000000040000001C
:1016C000040000002E2E2E616E6420612053797379
:1016D00074656D2052657365742077696C6C206247
:1016E000652067656E65726174656420746F207231
:1016F000652D6C6F616420746865206E6577206F5E
:101700007074696F6E2062797465730D0A00000051
:10171000496E76616C696420434D442021203D3D33
:101720003E2054686520636D642073686F756C6437
:101730002062652065697468657220646F776E6CDD
:101740006F61642C2075706C6F61642C2072756EF3
:101750006170702E0D0A0A00781700080000002042
:101760004800000020160008C017000848000020AC
:101770000015000030160008003801400044004009
:101780000008014000080140000801400008014035
:101790000030000800000000000000000000000011
:1017A0000000000000000000000000000204060825
:1017B00000000000010203040102030406070809F7
:0400000508000131BD
:00000001FF
