:020000040800F2
:10000000300D002085010008B30B0008AD07000883
:10001000B10B000851020008311100080000000077
:10002000000000000000000000000000110E0008A9
:100030005302000800000000B50B0008F90F00088B
:100040009F0100089F0100089F0100089F01000810
:100050009F0100089F0100089F0100089F01000800
:100060009F0100089F0100089F0100089F010008F0
:100070009F0100089F0100089F0100089F010008E0
:100080009F0100089F0100089F0100089F010008D0
:100090009F0100089F0100089F0100089F010008C0
:1000A0009F0100089F0100089F0100089F010008B0
:1000B0009F0100089F0100089F0100089F010008A0
:1000C0009F0100089F0100089F0100089F01000890
:1000D0009F0100089F0100089F0100089F01000880
:1000E0009F0100089F0100089F0100080000000018
:1000F0000000000000000000000000000000000000
:1001000000000000000000009F0100089F0100089F
:100110009F0100089F0100089F0100089F0100083F
:100120009F0100089F0100089F0100089F0100082F
:100130009F0100089F0100089F0100089F0100081F
:100140009F0100089F0100089F0100089F0100080F
:10015000DFF80CD000F05AF80048004707130008F9
:10016000300D0020EFF30980704780F30988704755
:10017000EFF30880704780F30888704740BA7047F3
:10018000C0BA70470648804706480047FEE7FEE7CA
:10019000FEE7FEE7FEE7FEE7FEE7FEE7FEE7FEE737
:1001A000FD0F00085101000840EA01039B0703D03E
:1001B00009E008C9121F08C0042AFAD203E011F8A6
:1001C000013B00F8013B521EF9D27047D2B201E068
:1001D00000F8012B491EFBD270470022F6E710B54C
:1001E00013460A4604461946FFF7F0FF204610BDA5
:1001F00010B5002200E0521C835C8C5CA34201D14C
:10020000002BF8D1D8B2E1B2401A10BD064C074D10
:1002100006E0E06840F0010394E8070098471034D6
:10022000AC42F6D3FFF798FF6C1300088C1300085C
:1002300008B5024908440090008808BD006C0040E1
:1002400008B5024A10440090016008BD006C0040EF
:10025000FEE770472DE9F34182B00024884604256B
:100260000094029800F08CF9064600F0BBF9134F99
:1002700013E000BF07EBC42000F032F90546B8F1E7
:10028000010F09D1611C684600F072FC684600F05D
:10029000E1FD0BA000F0DEFD641CB44201D2042D90
:1002A000E8D000F065F9B44201D1042D03D000205C
:1002B00004B0BDE8F0810120FAE70000003000083A
:1002C000400000002DE9F0474FF001094FF002080F
:1002D000042700F047F91E4D06466868B04335D044
:1002E00000F03AF9044668683043686000F0BAF8F4
:1002F00006466868411C03D0C04300F05DF806461E
:10030000E04340070ED0E00700D18146A00701D4AA
:100310004FF00008600700D400273A46414648469F
:1003200000F06CF9042E04D00AA0BDE8F04700F0FC
:1003300091BD10A000F08EFD15480168154A01F42A
:10034000E06111430160BFF34F8FFEE712A0ECE7BD
:10035000000000204572726F723A20756E70726FE5
:1003600074656374696F6E206661696C65642E0DD7
:100370000A00000057726974652050726F746563DB
:1003800074696F6E20436C6F73652E0D0A00000058
:100390000CED00E00400FA05466C617368206E6F96
:1003A000742077726974652070726F746563746508
:1003B000642E0D0A000000002DE9F043C043C7B2CF
:1003C000C0F30726C0F30745040E4FF40059484612
:1003D00000F044F904283BD1DFF87C801D4AC8F8BE
:1003E00008201E4AC8F80820D8F8102042F0100251
:1003F000C8F81020FF2F06D019480780484600F0A3
:100400002DF904281BD1FF2E07D01548801C06802B
:10041000484600F023F9042811D1FF2D07D01048D9
:10042000001D0580484600F019F9042807D1FF2C6B
:1004300007D00B48801D0480484600F00FF90528BE
:1004400006D0D8F8102041F6EF731A40C8F81020F3
:10045000BDE8F0832301674500200240AB89EFCD62
:1004600008F8FF1F70B5A52500F06CF800B1002555
:100470004FF43026304600F0F1F8042827D1154C0F
:100480001348A0601448A060206940F0200020615B
:10049000206940F040002061304600F0DFF841F66E
:1004A000EF7604280ED1206941F6DF710840206103
:1004B000206940F010002061084805804FF400508A
:1004C00000F0CCF8052802D021693140216170BDCF
:1004D0002301674500200240AB89EFCD00F8FF1FE4
:1004E00070B505464FF43026304600F0B7F80428C2
:1004F00011D1094C206940F002002061656120693A
:1005000040F040002061304600F0A8F8216941F633
:10051000FD721140216170BD002002400849042095
:10052000CA68D20701D001207047CA68520701D5B6
:1005300002207047C968C906FBD503207047000038
:100540000020024003490020C969890700D5012025
:1005500070470000002002400148C06980087047D1
:10056000002002400148006A70470000002002405D
:100570000248016941F0800101617047002002409A
:1005800001B50098410503D0012101EBD02008BD41
:10059000C00A08BD2DE9F841064600204FF4005777
:1005A00000900D46384600F059F8042816D10C4C3E
:1005B000206940F0010020613580B846384600F0DF
:1005C0004DF8BF1E042806D1B61C280C00963080BA
:1005D000404600F043F8216939402161BDE8F881C7
:1005E00000200240034802494160034941607047CE
:1005F0002301674500200240AB89EFCD2DE9F04192
:10060000134C0746114816460D46A0601148A060DD
:100610004FF40058404600F021F8042813D1206917
:1006200040F01000206135430B493D4345F0F80090
:100630000880404600F012F8052804D0216941F6F0
:10064000EF7211402161BDE8F08100002301674590
:1006500000200240AB89EFCD02F8FF1F00B5034632
:10066000FFF75CFF03E000BFFFF758FF5B1E0128A8
:1006700003D0002B00D1052000BD002BF4D1FAE7F8
:10068000F0B5CA78002502F00F03D20601D58A78AA
:1006900013430A784FF00F0E12F0FF0F4FF00102D4
:1006A0001CD004680F8802FA05F63740B74211D112
:1006B0004FEA850C0EFA0CF724EA070703FA0CF44C
:1006C0003C43CF78282F02D0482F02D002E0466169
:1006D00000E006616D1C082DE4D304600C88FF2C3B
:1006E0001ED944685FF0000606F1080702FA07F514
:1006F0000F882F40AF420FD14FEA860C0EFA0CF74D
:10070000BC4303FA0CF73C43CF78282F00D1456156
:10071000CF78482F00D10561761C082EE4D34460C1
:10072000F0BD000070B505465FF0000400F032F83F
:100730000A2802D008280BD004E0291911F8011C5E
:100740000D2912D0802C07D30CA000F083FBEBE71F
:10075000002CEBD0641EE9E7A0F120015E2901D94D
:100760000D28E3D12855641CE0E709A000F072FBD6
:100770000020291901F8010C70BD000020436D64B0
:100780002073697A65206F7665722E0D0A0000006D
:100790000D0A000008B500208DF80000684600F042
:1007A00039FB0028FAD09DF8000008BDFEE70000E4
:1007B00008B5002000907A21684600F0D9F90AA017
:1007C00000F048FB684600F045FB08A000F042FB43
:1007D00001214FF47430FFF73DFD08B1002008BD42
:1007E0004FF0FF3008BD0000204000004000000036
:1007F00010B500F00FF9BDE8104001214FF0C050D6
:1008000000F0DAB930B5A1B080216846FFF7E5FC09
:100810003648374C01250068A0F10060000B2060CD
:100820003E2804D205FA00F0401EC04301E04FF01C
:1008300000406060FFF796FE6168814301D0A560CB
:1008400001E00020A0602BA000F004FB31A000F02C
:1008500001FB33A000F0FEFA34A000F0FBFA36A052
:1008600000F0F8FA36A000F0F5FAA06810B137A051
:1008700000F0F0FA6846FFF755FF37A16846FFF72A
:10088000B7FCE0B136A16846FFF7B2FCD0B136A1A3
:100890006846FFF7ADFCC0B135A16846FFF7A8FC7C
:1008A000B0B135A16846FFF7A3FCA8B134A16846F2
:1008B000FFF79EFCB0B134A000F0CCFAC3E74EF6CF
:1008C000EE600BE04DF6DD5008E04CF6CC4005E064
:1008D000002000F03BF9B6E745F65A2000F036F963
:1008E00021B030BDFFF7EEFCADE7000014000020A2
:1008F000000000200D0A20494150204D61696E2002
:100900004D656E7520285620302E322E30290D0A66
:1009100000000000207570646174650D0A0000001D
:100920002075706C6F61640D0A00000020657261B3
:1009300073650D0A00000000206D656E750D0A00DC
:100940002072756E6170700D0A000000206469737A
:1009500077700D0A00000000757064617465000016
:1009600075706C6F616400006572617365000000F2
:100970006D656E750000000072756E61707000002C
:10098000646973777000000020496E76616C696459
:1009900020434D4420210D0A000000000420FFF7F1
:1009A00047BC000070B50D4D28680D490840B0F1F6
:1009B000005F05D00BA000F04DFA4FF0FF3070BD86
:1009C0000EA000F047FA6868114C2061E0602868CA
:1009D000FFF7D1FBE0688047002070BD00300008C1
:1009E0000000FE2F0D0A2052756E20746F2061707A
:1009F00070206572726F722E0D0A00000D0A20526F
:100A0000756E20746F206170702E0D0A000000005A
:100A1000000000201FB54FF4E13000900020ADF839
:100A20000400ADF80600ADF80800ADF80C000C208D
:100A3000ADF80A00684600F0B9F91FBD3EB50020C8
:100A40000090019002901D4800F074FB041E17DD19
:100A50001BA000F0FFF91FA000F0FCF91F4800F0F8
:100A6000F9F92146684600F083F81DA000F0F2F97C
:100A7000684600F0EFF91DA000F0ECF900203EBD43
:100A8000601C09D0A01C0DD0E41C11D01AA000F0ED
:100A9000E1F96FF003003EBD1CA000F0DBF94FF060
:100AA000FF303EBD1EA000F0D5F96FF001003EBD45
:100AB00020A000F0CFF96FF002003EBD3000002012
:100AC0000D0A20557064617465204F766572210DA2
:100AD0000A000000204E616D653A200030040020BD
:100AE0000D0A2053697A653A20000000204279748B
:100AF00065732E0D0A0000002052656365697665F6
:100B00002046696C65642E0D0A0000000D0A20491C
:100B10006D61676520546F6F20426967210D0A007F
:100B20000D0A20557064617465206661696C6564A6
:100B3000210D0A000D0A2041626F72746564206203
:100B40007920757365722E0D0A00000010B5074CF0
:100B5000216841F48071216001460420FFF770FB99
:100B6000206820F48070206010BD000000700040FC
:100B7000F0B500220D4B154614460A27B1FBF3F6DB
:100B800030368654B1FBF3F603FB1611B3FBF7F3D3
:100B9000521C861816F8016C302E00D125B16D1C40
:100BA000641C0A2CEAD3F0BD0022F9E700CA9A3B84
:100BB000FEE7704770470000044A0029D16901D060
:100BC000014300E08143D161704700000010024002
:100BD000044A0029916901D0014300E081439161F9
:100BE0007047000000100240F0B52C4A51682C4BB1
:100BF00011F00C014FF00F0504D02A4C042903D04A
:100C0000082903D0036028E0046026E05168536897
:100C100005EA914103F480330D2901D0891C00E0DD
:100C20000621BBB1D36A13F4803FD36A03F00F03EC
:100C300003F101030AD0D66AD76AC6F30316761CFD
:100C4000B4FBF6F4C7F30327BF1C7C43B4FBF3F3F8
:100C50004B43D7E7144B594301605168134C05EAE5
:100C60001111635C0168D94041605368072505EAAA
:100C70001323E35C21FA03F38360536805EAD3236B
:100C8000E35CD940C1605268032303EA9232231F18
:100C90009A5CB1FBF2F10161F0BD0000001002406E
:100CA00000127A0040787D0100093D0020000020FC
:100CB00070B50C46054604E0284600F0ABF8012864
:100CC00004D0641EF8D24FF0FF3070BD002070BD1C
:100CD0002DE9F84F884600210646C8F800109246D4
:100CE00011466846FFF7E4FF4FF0FF3978BB9DF8E7
:100CF0000000A2281DD010DC182832D006DC012804
:100D00001DD0022824D0042849D14CE0412834D0F9
:100D1000612832D0A12842D109E0A0F1A30107291E
:100D20003DD2DFE801F0080A0C0E11151800082466
:100D300013E0102411E020240FE040240DE0802473
:100D40000BE04FF4807408E04FF4007405E026E0F7
:100D50004FF4806401E04FF4006401253070671D9A
:100D600015E051466846FFF7A3FFC0B99DF80000A3
:100D7000182814D1C8F8009015E00120BDE8F88FBC
:100D800070195146FFF794FF48B96D1CADB2BD42D2
:100D9000F6D3B178707881F0FF01884201D04846DF
:100DA000ECE7C8F800400020E8E7000038B504464A
:100DB00001210520FFF70CFF01218803FFF708FF41
:100DC00018208DF803004FF40070ADF800000320E8
:100DD0000D4D8DF8020069462846FFF751FC0420AE
:100DE0008DF803000002ADF8000069462846FFF7C1
:100DF00047FC2146054C204600F040F901212046E1
:100E000000F02AF938BD0000000801400038014018
:100E10007047000010B504462021054800F026F96F
:100E2000002804D00248001D00882070012010BD59
:100E30000038014010B5064C0146204600F074F918
:100E40008021204600F012F90028F9D010BD0000E2
:100E50000038014010B5044603E000BFFFF7EAFF89
:100E6000641C20780028F9D110BD00000CB50021C9
:100E70002E4801910091026842F4803202604FF4E2
:100E8000A063026802F400320092019A521C01929F
:100E9000009A12B9019A9A42F3D10268920342D59C
:100EA0000121009122490A6842F010020A600A6892
:100EB00022F003020A600A6842F002020A604168F6
:100EC000416041684160416841F480614160C16AAC
:100ED000184A1140C162C16A174A1143C1620168D0
:100EE00041F08061016001680901FCD5416821F48D
:100EF0007C114160416841F4E8114160016841F0B2
:100F00008071016001688901FCD5416821F003010D
:100F10004160416841F0020141604168C1F38101D3
:100F20000229FAD10CBD00910CBD00000010024056
:100F30000020024000F0FEFF4406010070B50022D0
:100F400004781346302C04D14478782C0AD0582CDD
:100F500008D06FF02F05845C74B36B2C2ED04B2C13
:100F60002CD030E082780AB30224025D5AB1A2F19B
:100F70004105052D0AD9A2F16106052E06D91135C4
:100F8000092D07D913E001200B6011E0A2F1300612
:100F9000092E01D8303A04E0052D01D8373A00E097
:100FA000573A641C02EB03130B2CDED302E0002043
:100FB0000B2C00D3002070BD0B6002E01AB1980228
:100FC00007E0012015E06D2C01D04D2C03D112B1AA
:100FD00018050860F5E7A4F13006092E08D803EBE0
:100FE000830305EB4303521C23440B2AB3D3E1E7ED
:100FF00000200B2ADED270BD70470000124810B5E9
:10100000016841F0010101604168104A11404160EE
:1010100001680F4A11400160016821F480210160DC
:10102000416821F4FE014160016821F0A051016096
:101030004FF47F0181600021C162FFF717FF05496E
:101040004FF00060086010BD001002400000FFF08B
:10105000FFFFF6FE08ED00E00029818902D041F48F
:10106000005101E021F400518181704702460020C7
:1010700012880A4200D001207047000030B50446B3
:10108000008A85B00D464CF6FF710840E98801439F
:101090002182A1894EF6F3100140A8882A891043C5
:1010A0006A890A431043A081A08A4FF6FF41084095
:1010B000A9890143A1826846FFF796FD1948844239
:1010C00001D1039800E00298A189090400EBC00156
:1010D00001EB0010296801D5490000E08900B0FB50
:1010E000F1F06422B0FBF2F109010B096FF0180571
:1010F0006B4300EB8300A3891D044FF0320306D538
:1011000003EBC000B0FBF2F000F0070005E003EBDA
:101110000010B0FBF2F000F00F000843208105B092
:1011200030BD000000380140C1F3080181807047E4
:10113000FEE700002DE9F04FADF2244D804600207F
:10114000674CCDF80804DFF894B14320C4F800B030
:10115000FFF770FE0020054607464FF480194FF058
:10116000FF3ACDF8100400264A460DF20C416846BD
:10117000FFF7AEFD88B101286BD0002F00DD6D1C9C
:10118000052D67DD1820FFF755FE1820FFF752FEEA
:1011900000200DF2244DBDE8F08FDDF80C24002571
:1011A000524507D042B19DF80100F1B288420BD000
:1011B00015208FE00620E9E70620FFF73BFEDDF86B
:1011C00010040028CFD049E046B140460DF103019C
:1011D000FEF7EAFF0027C4F8048060E09DF80300F2
:1011E000B0B300213F4F0DF1030002E07A54401CE0
:1011F000491C02780AB1FF29F8DD00237B54194607
:101200000DF21447401C02E07A54401C491C02783D
:10121000202A01D01029F7DB7B540DF58161384677
:10122000FFF78CFEDDF80804B0F5802F08DA002106
:10123000FFF710F820B10620FFF7FCFD43203AE04D
:101240001820FFF7F7FD1820FFF7F4FD5046A0E740
:1012500001E035E03DE00620FFF7ECFDDDF8080495
:1012600097E700BFFFF7BEF9606801682068FFF7E5
:1012700091F9FFF77DF92068616802680B689A426E
:1012800008D01820FFF7D6FD1820FFF7D3FD6FF028
:1012900001007EE7001D091DC4E900013F1DDDF8C6
:1012A0000C04874206DADDF80824206802EB0B0103
:1012B0008842D7D30620FFF7BDFD0127761C53E7F0
:1012C0001820FFF7B7FD1820FFF7B4FD6FF00200FC
:1012D0005FE74320FFF7AEFD46E70000003000085F
:1012E000140000203004002002E008C8121F08C1CA
:1012F000002AFAD170477047002001E001C1121F97
:10130000002AFBD17047FFF773FA4CF6CC4445F640
:101310005A25FFF743FBA0F54C41CC39A04221D020
:101320000BDCE0B100F2A650B0F5C04FF1D1FFF7F1
:1013300039FB0028EDD000200EE001F6EF61B1F599
:101340000051E6D001F6EF61B1F5005FE1D1FFF7A2
:1013500075FB0028EFD12846FFF7F8FBD9E7FFF728
:1013600051FAD6E7FFF724FAE5E700008C130008EE
:101370000000002030000000E8120008BC13000844
:1013800030000020000D0000F812000800000000EE
:10139000000000000000000000000000000000004D
:1013A00000300008000000000204060800000000F1
:0C13B000010203040102030406070809FF
:04000005080001519D
:00000001FF
